{
  "_format": "hh-sol-artifact-1",
  "contractName": "ForumNFT",
  "sourceName": "contracts/ForumNFT.sol",
  "abi": [
    {
      "inputs": [
        {
          "internalType": "string",
          "name": "_name",
          "type": "string"
        },
        {
          "internalType": "string",
          "name": "_symbol",
          "type": "string"
        },
        {
          "internalType": "address",
          "name": "_newOwner",
          "type": "address"
        },
        {
          "internalType": "bool",
          "name": "_isNFT",
          "type": "bool"
        }
      ],
      "stateMutability": "nonpayable",
      "type": "constructor"
    },
    {
      "inputs": [],
      "name": "LSP4TokenNameNotEditable",
      "type": "error"
    },
    {
      "inputs": [],
      "name": "LSP4TokenSymbolNotEditable",
      "type": "error"
    },
    {
      "inputs": [
        {
          "internalType": "address",
          "name": "tokenOwner",
          "type": "address"
        },
        {
          "internalType": "uint256",
          "name": "authorizedAmount",
          "type": "uint256"
        },
        {
          "internalType": "address",
          "name": "operator",
          "type": "address"
        },
        {
          "internalType": "uint256",
          "name": "amount",
          "type": "uint256"
        }
      ],
      "name": "LSP7AmountExceedsAuthorizedAmount",
      "type": "error"
    },
    {
      "inputs": [
        {
          "internalType": "uint256",
          "name": "balance",
          "type": "uint256"
        },
        {
          "internalType": "address",
          "name": "tokenOwner",
          "type": "address"
        },
        {
          "internalType": "uint256",
          "name": "amount",
          "type": "uint256"
        }
      ],
      "name": "LSP7AmountExceedsBalance",
      "type": "error"
    },
    {
      "inputs": [],
      "name": "LSP7CannotSendWithAddressZero",
      "type": "error"
    },
    {
      "inputs": [],
      "name": "LSP7CannotUseAddressZeroAsOperator",
      "type": "error"
    },
    {
      "inputs": [],
      "name": "LSP7InvalidTransferBatch",
      "type": "error"
    },
    {
      "inputs": [
        {
          "internalType": "address",
          "name": "tokenReceiver",
          "type": "address"
        }
      ],
      "name": "LSP7NotifyTokenReceiverContractMissingLSP1Interface",
      "type": "error"
    },
    {
      "inputs": [
        {
          "internalType": "address",
          "name": "tokenReceiver",
          "type": "address"
        }
      ],
      "name": "LSP7NotifyTokenReceiverIsEOA",
      "type": "error"
    },
    {
      "anonymous": false,
      "inputs": [
        {
          "indexed": true,
          "internalType": "address",
          "name": "operator",
          "type": "address"
        },
        {
          "indexed": true,
          "internalType": "address",
          "name": "tokenOwner",
          "type": "address"
        },
        {
          "indexed": true,
          "internalType": "uint256",
          "name": "amount",
          "type": "uint256"
        }
      ],
      "name": "AuthorizedOperator",
      "type": "event"
    },
    {
      "anonymous": false,
      "inputs": [
        {
          "indexed": true,
          "internalType": "bytes32",
          "name": "dataKey",
          "type": "bytes32"
        }
      ],
      "name": "DataChanged",
      "type": "event"
    },
    {
      "anonymous": false,
      "inputs": [
        {
          "indexed": true,
          "internalType": "address",
          "name": "previousOwner",
          "type": "address"
        },
        {
          "indexed": true,
          "internalType": "address",
          "name": "newOwner",
          "type": "address"
        }
      ],
      "name": "OwnershipTransferred",
      "type": "event"
    },
    {
      "anonymous": false,
      "inputs": [
        {
          "indexed": true,
          "internalType": "address",
          "name": "operator",
          "type": "address"
        },
        {
          "indexed": true,
          "internalType": "address",
          "name": "tokenOwner",
          "type": "address"
        }
      ],
      "name": "RevokedOperator",
      "type": "event"
    },
    {
      "anonymous": false,
      "inputs": [
        {
          "indexed": true,
          "internalType": "address",
          "name": "operator",
          "type": "address"
        },
        {
          "indexed": true,
          "internalType": "address",
          "name": "from",
          "type": "address"
        },
        {
          "indexed": true,
          "internalType": "address",
          "name": "to",
          "type": "address"
        },
        {
          "indexed": false,
          "internalType": "uint256",
          "name": "amount",
          "type": "uint256"
        },
        {
          "indexed": false,
          "internalType": "bool",
          "name": "force",
          "type": "bool"
        },
        {
          "indexed": false,
          "internalType": "bytes",
          "name": "data",
          "type": "bytes"
        }
      ],
      "name": "Transfer",
      "type": "event"
    },
    {
      "inputs": [
        {
          "internalType": "address",
          "name": "operator",
          "type": "address"
        },
        {
          "internalType": "uint256",
          "name": "amount",
          "type": "uint256"
        }
      ],
      "name": "authorizeOperator",
      "outputs": [],
      "stateMutability": "nonpayable",
      "type": "function"
    },
    {
      "inputs": [
        {
          "internalType": "address",
          "name": "tokenOwner",
          "type": "address"
        }
      ],
      "name": "balanceOf",
      "outputs": [
        {
          "internalType": "uint256",
          "name": "",
          "type": "uint256"
        }
      ],
      "stateMutability": "view",
      "type": "function"
    },
    {
      "inputs": [
        {
          "internalType": "address",
          "name": "_newAdmin",
          "type": "address"
        }
      ],
      "name": "changeAdmin",
      "outputs": [],
      "stateMutability": "nonpayable",
      "type": "function"
    },
    {
      "inputs": [
        {
          "internalType": "uint256",
          "name": "_tokenId",
          "type": "uint256"
        },
        {
          "internalType": "string",
          "name": "_text",
          "type": "string"
        }
      ],
      "name": "createComment",
      "outputs": [],
      "stateMutability": "nonpayable",
      "type": "function"
    },
    {
      "inputs": [
        {
          "internalType": "string",
          "name": "_title",
          "type": "string"
        },
        {
          "internalType": "string",
          "name": "_text",
          "type": "string"
        }
      ],
      "name": "createPost",
      "outputs": [],
      "stateMutability": "nonpayable",
      "type": "function"
    },
    {
      "inputs": [],
      "name": "decimals",
      "outputs": [
        {
          "internalType": "uint256",
          "name": "",
          "type": "uint256"
        }
      ],
      "stateMutability": "view",
      "type": "function"
    },
    {
      "inputs": [
        {
          "internalType": "uint256",
          "name": "_tokenId",
          "type": "uint256"
        }
      ],
      "name": "deletePost",
      "outputs": [],
      "stateMutability": "nonpayable",
      "type": "function"
    },
    {
      "inputs": [
        {
          "internalType": "uint256",
          "name": "_tokenId",
          "type": "uint256"
        },
        {
          "internalType": "string",
          "name": "_title",
          "type": "string"
        },
        {
          "internalType": "string",
          "name": "_text",
          "type": "string"
        }
      ],
      "name": "editPost",
      "outputs": [],
      "stateMutability": "nonpayable",
      "type": "function"
    },
    {
      "inputs": [],
      "name": "fetchPosts",
      "outputs": [
        {
          "components": [
            {
              "internalType": "string",
              "name": "title",
              "type": "string"
            },
            {
              "internalType": "string",
              "name": "text",
              "type": "string"
            },
            {
              "internalType": "address",
              "name": "author",
              "type": "address"
            },
            {
              "internalType": "address[]",
              "name": "likes",
              "type": "address[]"
            },
            {
              "components": [
                {
                  "internalType": "string",
                  "name": "text",
                  "type": "string"
                },
                {
                  "internalType": "address",
                  "name": "commentor",
                  "type": "address"
                },
                {
                  "internalType": "uint256",
                  "name": "id",
                  "type": "uint256"
                }
              ],
              "internalType": "struct ForumNFT.Comment[]",
              "name": "comments",
              "type": "tuple[]"
            },
            {
              "internalType": "uint256",
              "name": "id",
              "type": "uint256"
            }
          ],
          "internalType": "struct ForumNFT.Post[]",
          "name": "posts",
          "type": "tuple[]"
        },
        {
          "internalType": "uint256",
          "name": "",
          "type": "uint256"
        }
      ],
      "stateMutability": "view",
      "type": "function"
    },
    {
      "inputs": [
        {
          "internalType": "bytes32[]",
          "name": "dataKeys",
          "type": "bytes32[]"
        }
      ],
      "name": "getData",
      "outputs": [
        {
          "internalType": "bytes[]",
          "name": "dataValues",
          "type": "bytes[]"
        }
      ],
      "stateMutability": "view",
      "type": "function"
    },
    {
      "inputs": [
        {
          "internalType": "bytes32",
          "name": "dataKey",
          "type": "bytes32"
        }
      ],
      "name": "getData",
      "outputs": [
        {
          "internalType": "bytes",
          "name": "dataValue",
          "type": "bytes"
        }
      ],
      "stateMutability": "view",
      "type": "function"
    },
    {
      "inputs": [
        {
          "internalType": "address",
          "name": "operator",
          "type": "address"
        },
        {
          "internalType": "address",
          "name": "tokenOwner",
          "type": "address"
        }
      ],
      "name": "isOperatorFor",
      "outputs": [
        {
          "internalType": "uint256",
          "name": "",
          "type": "uint256"
        }
      ],
      "stateMutability": "view",
      "type": "function"
    },
    {
      "inputs": [
        {
          "internalType": "uint256",
          "name": "_tokenId",
          "type": "uint256"
        }
      ],
      "name": "like",
      "outputs": [],
      "stateMutability": "nonpayable",
      "type": "function"
    },
    {
      "inputs": [
        {
          "internalType": "address",
          "name": "to",
          "type": "address"
        },
        {
          "internalType": "uint256",
          "name": "amount",
          "type": "uint256"
        },
        {
          "internalType": "bool",
          "name": "force",
          "type": "bool"
        },
        {
          "internalType": "bytes",
          "name": "data",
          "type": "bytes"
        }
      ],
      "name": "mint",
      "outputs": [],
      "stateMutability": "nonpayable",
      "type": "function"
    },
    {
      "inputs": [],
      "name": "owner",
      "outputs": [
        {
          "internalType": "address",
          "name": "",
          "type": "address"
        }
      ],
      "stateMutability": "view",
      "type": "function"
    },
    {
      "inputs": [
        {
          "internalType": "uint256",
          "name": "",
          "type": "uint256"
        }
      ],
      "name": "postByTokenId",
      "outputs": [
        {
          "internalType": "string",
          "name": "title",
          "type": "string"
        },
        {
          "internalType": "string",
          "name": "text",
          "type": "string"
        },
        {
          "internalType": "address",
          "name": "author",
          "type": "address"
        },
        {
          "internalType": "uint256",
          "name": "id",
          "type": "uint256"
        }
      ],
      "stateMutability": "view",
      "type": "function"
    },
    {
      "inputs": [
        {
          "internalType": "uint256",
          "name": "",
          "type": "uint256"
        }
      ],
      "name": "postsIds",
      "outputs": [
        {
          "internalType": "uint256",
          "name": "",
          "type": "uint256"
        }
      ],
      "stateMutability": "view",
      "type": "function"
    },
    {
      "inputs": [
        {
          "internalType": "uint256",
          "name": "_tokenId",
          "type": "uint256"
        },
        {
          "internalType": "uint256",
          "name": "_commentId",
          "type": "uint256"
        }
      ],
      "name": "removeComment",
      "outputs": [],
      "stateMutability": "nonpayable",
      "type": "function"
    },
    {
      "inputs": [],
      "name": "renounceOwnership",
      "outputs": [],
      "stateMutability": "nonpayable",
      "type": "function"
    },
    {
      "inputs": [
        {
          "internalType": "address",
          "name": "operator",
          "type": "address"
        }
      ],
      "name": "revokeOperator",
      "outputs": [],
      "stateMutability": "nonpayable",
      "type": "function"
    },
    {
      "inputs": [
        {
          "internalType": "bytes32[]",
          "name": "dataKeys",
          "type": "bytes32[]"
        },
        {
          "internalType": "bytes[]",
          "name": "dataValues",
          "type": "bytes[]"
        }
      ],
      "name": "setData",
      "outputs": [],
      "stateMutability": "nonpayable",
      "type": "function"
    },
    {
      "inputs": [
        {
          "internalType": "bytes32",
          "name": "dataKey",
          "type": "bytes32"
        },
        {
          "internalType": "bytes",
          "name": "dataValue",
          "type": "bytes"
        }
      ],
      "name": "setData",
      "outputs": [],
      "stateMutability": "nonpayable",
      "type": "function"
    },
    {
      "inputs": [
        {
          "internalType": "bytes4",
          "name": "interfaceId",
          "type": "bytes4"
        }
      ],
      "name": "supportsInterface",
      "outputs": [
        {
          "internalType": "bool",
          "name": "",
          "type": "bool"
        }
      ],
      "stateMutability": "view",
      "type": "function"
    },
    {
      "inputs": [],
      "name": "totalSupply",
      "outputs": [
        {
          "internalType": "uint256",
          "name": "",
          "type": "uint256"
        }
      ],
      "stateMutability": "view",
      "type": "function"
    },
    {
      "inputs": [
        {
          "internalType": "address",
          "name": "from",
          "type": "address"
        },
        {
          "internalType": "address",
          "name": "to",
          "type": "address"
        },
        {
          "internalType": "uint256",
          "name": "amount",
          "type": "uint256"
        },
        {
          "internalType": "bool",
          "name": "force",
          "type": "bool"
        },
        {
          "internalType": "bytes",
          "name": "data",
          "type": "bytes"
        }
      ],
      "name": "transfer",
      "outputs": [],
      "stateMutability": "nonpayable",
      "type": "function"
    },
    {
      "inputs": [
        {
          "internalType": "address[]",
          "name": "from",
          "type": "address[]"
        },
        {
          "internalType": "address[]",
          "name": "to",
          "type": "address[]"
        },
        {
          "internalType": "uint256[]",
          "name": "amount",
          "type": "uint256[]"
        },
        {
          "internalType": "bool",
          "name": "force",
          "type": "bool"
        },
        {
          "internalType": "bytes[]",
          "name": "data",
          "type": "bytes[]"
        }
      ],
      "name": "transferBatch",
      "outputs": [],
      "stateMutability": "nonpayable",
      "type": "function"
    },
    {
      "inputs": [
        {
          "internalType": "address",
          "name": "newOwner",
          "type": "address"
        }
      ],
      "name": "transferOwnership",
      "outputs": [],
      "stateMutability": "nonpayable",
      "type": "function"
    }
  ],
  "bytecode": "0x60806040523480156200001157600080fd5b506040516200563b3803806200563b833981810160405281019062000037919062000571565b8383838383838383838383806200005981620001ad60201b62001c011760201c565b50620000c97feafec4d89fa9619884b60000a4d96624a38f7ac2d8d9a604ecf07c12c77e480c60001b6040518060400160405280600481526020017fa4d9662400000000000000000000000000000000000000000000000000000000815250620002b560201b62001d001760201c565b620001037fdeba1e292f8ba88238e10ab3c7f88bd4be4fac56cad5194b6ecceaf653468af160001b84620002b560201b62001d001760201c565b6200013d7f2f0a68ab07768e01943a599e73362a0e17a63a72e94dd2e384d2c1d4db93275660001b83620002b560201b62001d001760201c565b50505080600260006101000a81548160ff021916908315150217905550505050505050505033601260006101000a81548173ffffffffffffffffffffffffffffffffffffffff021916908373ffffffffffffffffffffffffffffffffffffffff1602179055505050505062000953565b620001bd6200030960201b60201c565b73ffffffffffffffffffffffffffffffffffffffff168173ffffffffffffffffffffffffffffffffffffffff1614620002b25760008060009054906101000a900473ffffffffffffffffffffffffffffffffffffffff169050816000806101000a81548173ffffffffffffffffffffffffffffffffffffffff021916908373ffffffffffffffffffffffffffffffffffffffff1602179055508173ffffffffffffffffffffffffffffffffffffffff168173ffffffffffffffffffffffffffffffffffffffff167f8be0079c531659141344cd1fd0a4f28419497f9722a3daafe3b4186f6b6457e060405160405180910390a3505b50565b80600160008481526020019081526020016000209081620002d791906200086c565b50817fcdf4e344c0d23d4cdd0474039d176c55b19d531070dbe17856bfb993a5b5720b60405160405180910390a25050565b60008060009054906101000a900473ffffffffffffffffffffffffffffffffffffffff16905090565b6000604051905090565b600080fd5b600080fd5b600080fd5b600080fd5b6000601f19601f8301169050919050565b7f4e487b7100000000000000000000000000000000000000000000000000000000600052604160045260246000fd5b6200039b8262000350565b810181811067ffffffffffffffff82111715620003bd57620003bc62000361565b5b80604052505050565b6000620003d262000332565b9050620003e0828262000390565b919050565b600067ffffffffffffffff82111562000403576200040262000361565b5b6200040e8262000350565b9050602081019050919050565b60005b838110156200043b5780820151818401526020810190506200041e565b838111156200044b576000848401525b50505050565b6000620004686200046284620003e5565b620003c6565b9050828152602081018484840111156200048757620004866200034b565b5b620004948482856200041b565b509392505050565b600082601f830112620004b457620004b362000346565b5b8151620004c684826020860162000451565b91505092915050565b600073ffffffffffffffffffffffffffffffffffffffff82169050919050565b6000620004fc82620004cf565b9050919050565b6200050e81620004ef565b81146200051a57600080fd5b50565b6000815190506200052e8162000503565b92915050565b60008115159050919050565b6200054b8162000534565b81146200055757600080fd5b50565b6000815190506200056b8162000540565b92915050565b600080600080608085870312156200058e576200058d6200033c565b5b600085015167ffffffffffffffff811115620005af57620005ae62000341565b5b620005bd878288016200049c565b945050602085015167ffffffffffffffff811115620005e157620005e062000341565b5b620005ef878288016200049c565b935050604062000602878288016200051d565b925050606062000615878288016200055a565b91505092959194509250565b600081519050919050565b7f4e487b7100000000000000000000000000000000000000000000000000000000600052602260045260246000fd5b600060028204905060018216806200067457607f821691505b6020821081036200068a57620006896200062c565b5b50919050565b60008190508160005260206000209050919050565b60006020601f8301049050919050565b600082821b905092915050565b600060088302620006f47fffffffffffffffffffffffffffffffffffffffffffffffffffffffffffffffff82620006b5565b620007008683620006b5565b95508019841693508086168417925050509392505050565b6000819050919050565b6000819050919050565b60006200074d62000747620007418462000718565b62000722565b62000718565b9050919050565b6000819050919050565b62000769836200072c565b62000781620007788262000754565b848454620006c2565b825550505050565b600090565b6200079862000789565b620007a58184846200075e565b505050565b5b81811015620007cd57620007c16000826200078e565b600181019050620007ab565b5050565b601f8211156200081c57620007e68162000690565b620007f184620006a5565b8101602085101562000801578190505b620008196200081085620006a5565b830182620007aa565b50505b505050565b600082821c905092915050565b6000620008416000198460080262000821565b1980831691505092915050565b60006200085c83836200082e565b9150826002028217905092915050565b620008778262000621565b67ffffffffffffffff81111562000893576200089262000361565b5b6200089f82546200065b565b620008ac828285620007d1565b600060209050601f831160018114620008e45760008415620008cf578287015190505b620008db85826200084e565b8655506200094b565b601f198416620008f48662000690565b60005b828110156200091e57848901518255600182019150602085019450602081019050620008f7565b868310156200093e57848901516200093a601f8916826200082e565b8355505b6001600288020188555050505b505050505050565b614cd880620009636000396000f3fe608060405234801561001057600080fd5b50600436106101a95760003560e01c80637580d920116100f9578063abaddd7f11610097578063d95b637111610071578063d95b6371146104a4578063e82935da146104d4578063f2fde38b146104f0578063fad8b32a1461050c576101a9565b8063abaddd7f14610439578063abe48cc914610458578063bf0ac63c14610488576101a9565b80638da5cb5b116100d35780638da5cb5b146103c75780638f283970146103e5578063a71eb6a114610401578063a8a34e0a1461041d576101a9565b80637580d92014610373578063760d9bba1461038f5780637f23690c146103ab576101a9565b8063392338f5116101665780634e3e6e9c116101405780634e3e6e9c146102d957806354f6127f1461030957806370a0823114610339578063715018a614610369576101a9565b8063392338f51461028557806340a17985146102a157806347980aa3146102bd576101a9565b806301ffc9a7146101ae578063094cd5ee146101de57806314a6e293146101fa57806316ebbe041461021657806318160ddd14610249578063313ce56714610267575b600080fd5b6101c860048036038101906101c39190612cdb565b610528565b6040516101d59190612d23565b60405180910390f35b6101f860048036038101906101f39190612d74565b610589565b005b610214600480360381019061020f91906130c6565b6106fb565b005b610230600480360381019061022b9190612d74565b6107a6565b6040516102409493929190613216565b60405180910390f35b610251610906565b60405161025e9190613269565b60405180910390f35b61026f610910565b60405161027c9190613269565b60405180910390f35b61029f600480360381019061029a91906132df565b610938565b005b6102bb60048036038101906102b69190613360565b610af6565b005b6102d760048036038101906102d291906133ec565b610cb6565b005b6102f360048036038101906102ee919061342c565b610ccc565b604051610300919061358c565b60405180910390f35b610323600480360381019061031e91906135ae565b610d82565b6040516103309190613625565b60405180910390f35b610353600480360381019061034e9190613647565b610d94565b6040516103609190613269565b60405180910390f35b610371610ddd565b005b61038d600480360381019061038891906136a0565b610df1565b005b6103a960048036038101906103a49190613723565b610e0b565b005b6103c560048036038101906103c091906137ba565b610f43565b005b6103cf610f59565b6040516103dc9190613816565b60405180910390f35b6103ff60048036038101906103fa9190613647565b610f82565b005b61041b60048036038101906104169190613831565b611020565b005b610437600480360381019061043291906139f7565b611227565b005b61044161131a565b60405161044f929190613e6b565b60405180910390f35b610472600480360381019061046d9190612d74565b6117b0565b60405161047f9190613269565b60405180910390f35b6104a2600480360381019061049d9190613e9b565b6117d4565b005b6104be60048036038101906104b99190613f30565b6118cb565b6040516104cb9190613269565b60405180910390f35b6104ee60048036038101906104e99190612d74565b6119cd565b005b61050a60048036038101906105059190613647565b611b68565b005b61052660048036038101906105219190613647565b611beb565b005b600063e33f65c360e01b7bffffffffffffffffffffffffffffffffffffffffffffffffffffffff1916827bffffffffffffffffffffffffffffffffffffffffffffffffffffffff19161480610582575061058182611d52565b5b9050919050565b3373ffffffffffffffffffffffffffffffffffffffff16600f600083815260200190815260200160002060020160009054906101000a900473ffffffffffffffffffffffffffffffffffffffff1673ffffffffffffffffffffffffffffffffffffffff16148061064657503373ffffffffffffffffffffffffffffffffffffffff16601260009054906101000a900473ffffffffffffffffffffffffffffffffffffffff1673ffffffffffffffffffffffffffffffffffffffff16145b610685576040517f08c379a000000000000000000000000000000000000000000000000000000000815260040161067c90613fbc565b60405180910390fd5b600080600e80549050905060005b818110156106d35783600e82815481106106b0576106af613fdc565b5b9060005260206000200154036106c8578092506106d3565b806001019050610693565b50600e82815481106106e8576106e7613fdc565b5b9060005260206000200160009055505050565b610703611db3565b8051825114610747576040517f08c379a000000000000000000000000000000000000000000000000000000000815260040161073e9061407d565b60405180910390fd5b60005b82518110156107a15761079183828151811061076957610768613fdc565b5b602002602001015183838151811061078457610783613fdc565b5b6020026020010151611e2a565b61079a81611ef0565b905061074a565b505050565b600f6020528060005260406000206000915090508060000180546107c9906140cc565b80601f01602080910402602001604051908101604052809291908181526020018280546107f5906140cc565b80156108425780601f1061081757610100808354040283529160200191610842565b820191906000526020600020905b81548152906001019060200180831161082557829003601f168201915b505050505090806001018054610857906140cc565b80601f0160208091040260200160405190810160405280929190818152602001828054610883906140cc565b80156108d05780601f106108a5576101008083540402835291602001916108d0565b820191906000526020600020905b8154815290600101906020018083116108b357829003601f168201915b5050505050908060020160009054906101000a900473ffffffffffffffffffffffffffffffffffffffff16908060050154905084565b6000600354905090565b6000600260009054906101000a900460ff1661092d576012610930565b60005b60ff16905090565b83836006600001918261094c9291906142b4565b508181600660010191826109619291906142b4565b5033600660020160006101000a81548173ffffffffffffffffffffffffffffffffffffffff021916908373ffffffffffffffffffffffffffffffffffffffff1602179055506010600081546109b5906143b3565b9190508190556006600501819055506006600f60006010548152602001908152602001600020600082018160000190816109ef9190614411565b5060018201816001019081610a049190614411565b506002820160009054906101000a900473ffffffffffffffffffffffffffffffffffffffff168160020160006101000a81548173ffffffffffffffffffffffffffffffffffffffff021916908373ffffffffffffffffffffffffffffffffffffffff1602179055506003820181600301908054610a82929190612a40565b506004820181600401908054610a99929190612a92565b5060058201548160050155905050600e6010549080600181540180825580915050600190039060005260206000200160009091909190915055610af033601054600160405180602001604052806000815250611efd565b50505050565b3373ffffffffffffffffffffffffffffffffffffffff16600f600085815260200190815260200160002060020160009054906101000a900473ffffffffffffffffffffffffffffffffffffffff1673ffffffffffffffffffffffffffffffffffffffff1614610b6457600080fd5b601160008154610b73906143b3565b919050819055506000604051806060016040528084848080601f016020809104026020016040519081016040528093929190818152602001838380828437600081840152601f19601f8201169050808301925050505050505081526020013373ffffffffffffffffffffffffffffffffffffffff168152602001601160008154610bfc906143b3565b9190508190558152509050600f60008581526020019081526020016000206004018190806001815401808255809150506001900390600052602060002090600302016000909190919091506000820151816000019081610c5c91906144f9565b5060208201518160010160006101000a81548173ffffffffffffffffffffffffffffffffffffffff021916908373ffffffffffffffffffffffffffffffffffffffff16021790555060408201518160020155505050505050565b610cc8610cc1612067565b838361206f565b5050565b6060815167ffffffffffffffff811115610ce957610ce8612db7565b5b604051908082528060200260200182016040528015610d1c57816020015b6060815260200190600190039081610d075790505b50905060005b8251811015610d7c57610d4e838281518110610d4157610d40613fdc565b5b6020026020010151612253565b828281518110610d6157610d60613fdc565b5b6020026020010181905250610d7581611ef0565b9050610d22565b50919050565b6060610d8d82612253565b9050919050565b6000600460008373ffffffffffffffffffffffffffffffffffffffff1673ffffffffffffffffffffffffffffffffffffffff168152602001908152602001600020549050919050565b610de5611db3565b610def6000611c01565b565b610df9611db3565b610e0584848484611efd565b50505050565b6000610e15612067565b90508573ffffffffffffffffffffffffffffffffffffffff168173ffffffffffffffffffffffffffffffffffffffff1614610f2e576000600560008873ffffffffffffffffffffffffffffffffffffffff1673ffffffffffffffffffffffffffffffffffffffff16815260200190815260200160002060008373ffffffffffffffffffffffffffffffffffffffff1673ffffffffffffffffffffffffffffffffffffffff16815260200190815260200160002054905080851115610f1657868183876040517ff3a6b691000000000000000000000000000000000000000000000000000000008152600401610f0d94939291906145cb565b60405180910390fd5b610f2c87838784610f279190614610565b61206f565b505b610f3b86868686866122f8565b505050505050565b610f4b611db3565b610f558282611e2a565b5050565b60008060009054906101000a900473ffffffffffffffffffffffffffffffffffffffff16905090565b601260009054906101000a900473ffffffffffffffffffffffffffffffffffffffff1673ffffffffffffffffffffffffffffffffffffffff163373ffffffffffffffffffffffffffffffffffffffff1614610fdc57600080fd5b80601260006101000a81548173ffffffffffffffffffffffffffffffffffffffff021916908373ffffffffffffffffffffffffffffffffffffffff16021790555050565b3373ffffffffffffffffffffffffffffffffffffffff16600f600084815260200190815260200160002060020160009054906101000a900473ffffffffffffffffffffffffffffffffffffffff1673ffffffffffffffffffffffffffffffffffffffff16148061111457503373ffffffffffffffffffffffffffffffffffffffff16600f600084815260200190815260200160002060040182815481106110ca576110c9613fdc565b5b906000526020600020906003020160010160009054906101000a900473ffffffffffffffffffffffffffffffffffffffff1673ffffffffffffffffffffffffffffffffffffffff16145b8061116c57503373ffffffffffffffffffffffffffffffffffffffff16601260009054906101000a900473ffffffffffffffffffffffffffffffffffffffff1673ffffffffffffffffffffffffffffffffffffffff16145b6111ab576040517f08c379a00000000000000000000000000000000000000000000000000000000081526004016111a2906146b6565b60405180910390fd5b600f600083815260200190815260200160002060040181815481106111d3576111d2613fdc565b5b9060005260206000209060030201600080820160006111f29190612b70565b6001820160006101000a81549073ffffffffffffffffffffffffffffffffffffffff0219169055600282016000905550505050565b8351855114158061123a57508251855114155b8061124757508051855114155b1561127e576040517f263eee8d00000000000000000000000000000000000000000000000000000000815260040160405180910390fd5b60005b8551811015611312576112ff8682815181106112a05761129f613fdc565b5b60200260200101518683815181106112bb576112ba613fdc565b5b60200260200101518684815181106112d6576112d5613fdc565b5b6020026020010151868686815181106112f2576112f1613fdc565b5b6020026020010151610e0b565b808061130a906143b3565b915050611281565b505050505050565b6060600080600e8054905090506000600e80548060200260200160405190810160405280929190818152602001828054801561137557602002820191906000526020600020905b815481526020019060010190808311611361575b505050505090508167ffffffffffffffff81111561139657611395612db7565b5b6040519080825280602002602001820160405280156113cf57816020015b6113bc612bb0565b8152602001906001900390816113b45790505b50935060005b828110156117a157600f60008383815181106113f4576113f3613fdc565b5b602002602001015181526020019081526020016000206040518060c0016040529081600082018054611425906140cc565b80601f0160208091040260200160405190810160405280929190818152602001828054611451906140cc565b801561149e5780601f106114735761010080835404028352916020019161149e565b820191906000526020600020905b81548152906001019060200180831161148157829003601f168201915b505050505081526020016001820180546114b7906140cc565b80601f01602080910402602001604051908101604052809291908181526020018280546114e3906140cc565b80156115305780601f1061150557610100808354040283529160200191611530565b820191906000526020600020905b81548152906001019060200180831161151357829003601f168201915b505050505081526020016002820160009054906101000a900473ffffffffffffffffffffffffffffffffffffffff1673ffffffffffffffffffffffffffffffffffffffff1673ffffffffffffffffffffffffffffffffffffffff1681526020016003820180548060200260200160405190810160405280929190818152602001828054801561161457602002820191906000526020600020905b8160009054906101000a900473ffffffffffffffffffffffffffffffffffffffff1673ffffffffffffffffffffffffffffffffffffffff16815260200190600101908083116115ca575b5050505050815260200160048201805480602002602001604051908101604052809291908181526020016000905b828210156117665783829060005260206000209060030201604051806060016040529081600082018054611675906140cc565b80601f01602080910402602001604051908101604052809291908181526020018280546116a1906140cc565b80156116ee5780601f106116c3576101008083540402835291602001916116ee565b820191906000526020600020905b8154815290600101906020018083116116d157829003601f168201915b505050505081526020016001820160009054906101000a900473ffffffffffffffffffffffffffffffffffffffff1673ffffffffffffffffffffffffffffffffffffffff1673ffffffffffffffffffffffffffffffffffffffff16815260200160028201548152505081526020019060010190611642565b50505050815260200160058201548152505085828151811061178b5761178a613fdc565b5b60200260200101819052508060010190506113d5565b50836010549350935050509091565b600e81815481106117c057600080fd5b906000526020600020016000915090505481565b3373ffffffffffffffffffffffffffffffffffffffff16600f600087815260200190815260200160002060020160009054906101000a900473ffffffffffffffffffffffffffffffffffffffff1673ffffffffffffffffffffffffffffffffffffffff1614611878576040517f08c379a000000000000000000000000000000000000000000000000000000000815260040161186f90614722565b60405180910390fd5b8383600f6000888152602001908152602001600020600001918261189d9291906142b4565b508181600f600088815260200190815260200160002060010191826118c39291906142b4565b505050505050565b60008273ffffffffffffffffffffffffffffffffffffffff168273ffffffffffffffffffffffffffffffffffffffff160361194757600460008373ffffffffffffffffffffffffffffffffffffffff1673ffffffffffffffffffffffffffffffffffffffff1681526020019081526020016000205490506119c7565b600560008373ffffffffffffffffffffffffffffffffffffffff1673ffffffffffffffffffffffffffffffffffffffff16815260200190815260200160002060008473ffffffffffffffffffffffffffffffffffffffff1673ffffffffffffffffffffffffffffffffffffffff1681526020019081526020016000205490505b92915050565b600080600f600084815260200190815260200160002060030180549050905060005b81811015611ae5573373ffffffffffffffffffffffffffffffffffffffff16600f60008681526020019081526020016000206003018281548110611a3657611a35613fdc565b5b9060005260206000200160009054906101000a900473ffffffffffffffffffffffffffffffffffffffff1673ffffffffffffffffffffffffffffffffffffffff1603611ada5760019250600f60008581526020019081526020016000206003018181548110611aa857611aa7613fdc565b5b9060005260206000200160006101000a81549073ffffffffffffffffffffffffffffffffffffffff0219169055611ae5565b8060010190506119ef565b5081611b6357600f6000848152602001908152602001600020600301339080600181540180825580915050600190039060005260206000200160009091909190916101000a81548173ffffffffffffffffffffffffffffffffffffffff021916908373ffffffffffffffffffffffffffffffffffffffff1602179055505b505050565b611b70611db3565b600073ffffffffffffffffffffffffffffffffffffffff168173ffffffffffffffffffffffffffffffffffffffff1603611bdf576040517f08c379a0000000000000000000000000000000000000000000000000000000008152600401611bd6906147b4565b60405180910390fd5b611be881611c01565b50565b611bfe611bf6612067565b82600061206f565b50565b611c09610f59565b73ffffffffffffffffffffffffffffffffffffffff168173ffffffffffffffffffffffffffffffffffffffff1614611cfd5760008060009054906101000a900473ffffffffffffffffffffffffffffffffffffffff169050816000806101000a81548173ffffffffffffffffffffffffffffffffffffffff021916908373ffffffffffffffffffffffffffffffffffffffff1602179055508173ffffffffffffffffffffffffffffffffffffffff168173ffffffffffffffffffffffffffffffffffffffff167f8be0079c531659141344cd1fd0a4f28419497f9722a3daafe3b4186f6b6457e060405160405180910390a3505b50565b80600160008481526020019081526020016000209081611d20919061482f565b50817fcdf4e344c0d23d4cdd0474039d176c55b19d531070dbe17856bfb993a5b5720b60405160405180910390a25050565b600063714df77c60e01b7bffffffffffffffffffffffffffffffffffffffffffffffffffffffff1916827bffffffffffffffffffffffffffffffffffffffffffffffffffffffff19161480611dac5750611dab82612588565b5b9050919050565b3373ffffffffffffffffffffffffffffffffffffffff16611dd2610f59565b73ffffffffffffffffffffffffffffffffffffffff1614611e28576040517f08c379a0000000000000000000000000000000000000000000000000000000008152600401611e1f9061494d565b60405180910390fd5b565b7fdeba1e292f8ba88238e10ab3c7f88bd4be4fac56cad5194b6ecceaf653468af160001b8203611e86576040517f85c169bd00000000000000000000000000000000000000000000000000000000815260040160405180910390fd5b7f2f0a68ab07768e01943a599e73362a0e17a63a72e94dd2e384d2c1d4db93275660001b8203611ee2576040517f76755b3800000000000000000000000000000000000000000000000000000000815260040160405180910390fd5b611eec8282611d00565b5050565b6000600182019050919050565b600073ffffffffffffffffffffffffffffffffffffffff168473ffffffffffffffffffffffffffffffffffffffff1603611f63576040517fd2d5ec3000000000000000000000000000000000000000000000000000000000815260040160405180910390fd5b6000611f6d612067565b9050611f7b600086866125f2565b83600460008773ffffffffffffffffffffffffffffffffffffffff1673ffffffffffffffffffffffffffffffffffffffff1681526020019081526020016000206000828254611fca919061496d565b925050819055508473ffffffffffffffffffffffffffffffffffffffff16600073ffffffffffffffffffffffffffffffffffffffff168273ffffffffffffffffffffffffffffffffffffffff167f3997e418d2cef0b3b0e907b1e39605c3f7d32dbd061e82ea5b4a770d46a160a687878760405161204a939291906149c3565b60405180910390a4612060600086868686612693565b5050505050565b600033905090565b600073ffffffffffffffffffffffffffffffffffffffff168273ffffffffffffffffffffffffffffffffffffffff16036120d5576040517f6355e76600000000000000000000000000000000000000000000000000000000815260040160405180910390fd5b8273ffffffffffffffffffffffffffffffffffffffff168273ffffffffffffffffffffffffffffffffffffffff16031561224e5780600560008573ffffffffffffffffffffffffffffffffffffffff1673ffffffffffffffffffffffffffffffffffffffff16815260200190815260200160002060008473ffffffffffffffffffffffffffffffffffffffff1673ffffffffffffffffffffffffffffffffffffffff16815260200190815260200160002081905550600081146121f257808373ffffffffffffffffffffffffffffffffffffffff168373ffffffffffffffffffffffffffffffffffffffff167fd66aff874162a96578e919097b6f6d153dfd89a5cec41bb331fdb0c4aec16e2c60405160405180910390a461224d565b8273ffffffffffffffffffffffffffffffffffffffff168273ffffffffffffffffffffffffffffffffffffffff167f50546e66e5f44d728365dc3908c63bc5cfeeab470722c1677e3073a6ac294aa160405160405180910390a35b5b505050565b6060600160008381526020019081526020016000208054612273906140cc565b80601f016020809104026020016040519081016040528092919081815260200182805461229f906140cc565b80156122ec5780601f106122c1576101008083540402835291602001916122ec565b820191906000526020600020905b8154815290600101906020018083116122cf57829003601f168201915b50505050509050919050565b600073ffffffffffffffffffffffffffffffffffffffff168573ffffffffffffffffffffffffffffffffffffffff16148061235f5750600073ffffffffffffffffffffffffffffffffffffffff168473ffffffffffffffffffffffffffffffffffffffff16145b15612396576040517fd2d5ec3000000000000000000000000000000000000000000000000000000000815260040160405180910390fd5b6000600460008773ffffffffffffffffffffffffffffffffffffffff1673ffffffffffffffffffffffffffffffffffffffff16815260200190815260200160002054905080841115612423578086856040517f08d4794900000000000000000000000000000000000000000000000000000000815260040161241a93929190614a01565b60405180910390fd5b600061242d612067565b905061243a8787876125f2565b84600460008973ffffffffffffffffffffffffffffffffffffffff1673ffffffffffffffffffffffffffffffffffffffff16815260200190815260200160002060008282546124899190614610565b9250508190555084600460008873ffffffffffffffffffffffffffffffffffffffff1673ffffffffffffffffffffffffffffffffffffffff16815260200190815260200160002060008282546124df919061496d565b925050819055508573ffffffffffffffffffffffffffffffffffffffff168773ffffffffffffffffffffffffffffffffffffffff168273ffffffffffffffffffffffffffffffffffffffff167f3997e418d2cef0b3b0e907b1e39605c3f7d32dbd061e82ea5b4a770d46a160a688888860405161255e939291906149c3565b60405180910390a461257287878786612826565b61257f8787878787612693565b50505050505050565b60007f01ffc9a7000000000000000000000000000000000000000000000000000000007bffffffffffffffffffffffffffffffffffffffffffffffffffffffff1916827bffffffffffffffffffffffffffffffffffffffffffffffffffffffff1916149050919050565b600073ffffffffffffffffffffffffffffffffffffffff168373ffffffffffffffffffffffffffffffffffffffff1603612640578060036000828254612638919061496d565b925050819055505b600073ffffffffffffffffffffffffffffffffffffffff168273ffffffffffffffffffffffffffffffffffffffff160361268e5780600360008282546126869190614610565b925050819055505b505050565b6126a484636bb56a1460e01b612915565b15612780576000858585846040516020016126c29493929190614add565b60405160208183030381529060405290508473ffffffffffffffffffffffffffffffffffffffff16636bb56a147fdbe2c314e1aee2970c72666f2ebe8933a8575263ea71e5ff6a9178e95d47a26f60001b836040518363ffffffff1660e01b8152600401612731929190614b36565b6000604051808303816000875af1158015612750573d6000803e3d6000fd5b505050506040513d6000823e3d601f19601f820116820180604052508101906127799190614bd6565b505061281f565b8161281e5760008473ffffffffffffffffffffffffffffffffffffffff163b146127e157836040517fa608fbb60000000000000000000000000000000000000000000000000000000081526004016127d89190613816565b60405180910390fd5b836040517f26c247f40000000000000000000000000000000000000000000000000000000081526004016128159190613816565b60405180910390fd5b5b5050505050565b61283784636bb56a1460e01b612915565b1561290f576000848484846040516020016128559493929190614add565b60405160208183030381529060405290508473ffffffffffffffffffffffffffffffffffffffff16636bb56a147f40b8bec57d7b5ff0dbd9e9acd0a47dfeb0101e1a203766f5ccab00445fbf39e960001b836040518363ffffffff1660e01b81526004016128c4929190614b36565b6000604051808303816000875af11580156128e3573d6000803e3d6000fd5b505050506040513d6000823e3d601f19601f8201168201806040525081019061290c9190614bd6565b50505b50505050565b6000806301ffc9a760e01b836040516024016129319190614c2e565b604051602081830303815290604052907bffffffffffffffffffffffffffffffffffffffffffffffffffffffff19166020820180517bffffffffffffffffffffffffffffffffffffffffffffffffffffffff838183161783525050505090506000808573ffffffffffffffffffffffffffffffffffffffff16617530846040516129bb9190614c49565b6000604051808303818686fa925050503d80600081146129f7576040519150601f19603f3d011682016040523d82523d6000602084013e6129fc565b606091505b5091509150602081511015612a175760009350505050612a3a565b818015612a34575080806020019051810190612a339190614c75565b5b93505050505b92915050565b828054828255906000526020600020908101928215612a815760005260206000209182015b82811115612a80578254825591600101919060010190612a65565b5b509050612a8e9190612bfc565b5090565b828054828255906000526020600020906003028101928215612b5f5760005260206000209160030282015b82811115612b5e57828260008201816000019081612adb9190614411565b506001820160009054906101000a900473ffffffffffffffffffffffffffffffffffffffff168160010160006101000a81548173ffffffffffffffffffffffffffffffffffffffff021916908373ffffffffffffffffffffffffffffffffffffffff16021790555060028201548160020155505091600301919060030190612abd565b5b509050612b6c9190612c19565b5090565b508054612b7c906140cc565b6000825580601f10612b8e5750612bad565b601f016020900490600052602060002090810190612bac9190612bfc565b5b50565b6040518060c001604052806060815260200160608152602001600073ffffffffffffffffffffffffffffffffffffffff1681526020016060815260200160608152602001600081525090565b5b80821115612c15576000816000905550600101612bfd565b5090565b5b80821115612c6b5760008082016000612c339190612b70565b6001820160006101000a81549073ffffffffffffffffffffffffffffffffffffffff0219169055600282016000905550600301612c1a565b5090565b6000604051905090565b600080fd5b600080fd5b60007fffffffff0000000000000000000000000000000000000000000000000000000082169050919050565b612cb881612c83565b8114612cc357600080fd5b50565b600081359050612cd581612caf565b92915050565b600060208284031215612cf157612cf0612c79565b5b6000612cff84828501612cc6565b91505092915050565b60008115159050919050565b612d1d81612d08565b82525050565b6000602082019050612d386000830184612d14565b92915050565b6000819050919050565b612d5181612d3e565b8114612d5c57600080fd5b50565b600081359050612d6e81612d48565b92915050565b600060208284031215612d8a57612d89612c79565b5b6000612d9884828501612d5f565b91505092915050565b600080fd5b6000601f19601f8301169050919050565b7f4e487b7100000000000000000000000000000000000000000000000000000000600052604160045260246000fd5b612def82612da6565b810181811067ffffffffffffffff82111715612e0e57612e0d612db7565b5b80604052505050565b6000612e21612c6f565b9050612e2d8282612de6565b919050565b600067ffffffffffffffff821115612e4d57612e4c612db7565b5b602082029050602081019050919050565b600080fd5b6000819050919050565b612e7681612e63565b8114612e8157600080fd5b50565b600081359050612e9381612e6d565b92915050565b6000612eac612ea784612e32565b612e17565b90508083825260208201905060208402830185811115612ecf57612ece612e5e565b5b835b81811015612ef85780612ee48882612e84565b845260208401935050602081019050612ed1565b5050509392505050565b600082601f830112612f1757612f16612da1565b5b8135612f27848260208601612e99565b91505092915050565b600067ffffffffffffffff821115612f4b57612f4a612db7565b5b602082029050602081019050919050565b600080fd5b600067ffffffffffffffff821115612f7c57612f7b612db7565b5b612f8582612da6565b9050602081019050919050565b82818337600083830152505050565b6000612fb4612faf84612f61565b612e17565b905082815260208101848484011115612fd057612fcf612f5c565b5b612fdb848285612f92565b509392505050565b600082601f830112612ff857612ff7612da1565b5b8135613008848260208601612fa1565b91505092915050565b600061302461301f84612f30565b612e17565b9050808382526020820190506020840283018581111561304757613046612e5e565b5b835b8181101561308e57803567ffffffffffffffff81111561306c5761306b612da1565b5b8086016130798982612fe3565b85526020850194505050602081019050613049565b5050509392505050565b600082601f8301126130ad576130ac612da1565b5b81356130bd848260208601613011565b91505092915050565b600080604083850312156130dd576130dc612c79565b5b600083013567ffffffffffffffff8111156130fb576130fa612c7e565b5b61310785828601612f02565b925050602083013567ffffffffffffffff81111561312857613127612c7e565b5b61313485828601613098565b9150509250929050565b600081519050919050565b600082825260208201905092915050565b60005b8381101561317857808201518184015260208101905061315d565b83811115613187576000848401525b50505050565b60006131988261313e565b6131a28185613149565b93506131b281856020860161315a565b6131bb81612da6565b840191505092915050565b600073ffffffffffffffffffffffffffffffffffffffff82169050919050565b60006131f1826131c6565b9050919050565b613201816131e6565b82525050565b61321081612d3e565b82525050565b60006080820190508181036000830152613230818761318d565b90508181036020830152613244818661318d565b905061325360408301856131f8565b6132606060830184613207565b95945050505050565b600060208201905061327e6000830184613207565b92915050565b600080fd5b60008083601f84011261329f5761329e612da1565b5b8235905067ffffffffffffffff8111156132bc576132bb613284565b5b6020830191508360018202830111156132d8576132d7612e5e565b5b9250929050565b600080600080604085870312156132f9576132f8612c79565b5b600085013567ffffffffffffffff81111561331757613316612c7e565b5b61332387828801613289565b9450945050602085013567ffffffffffffffff81111561334657613345612c7e565b5b61335287828801613289565b925092505092959194509250565b60008060006040848603121561337957613378612c79565b5b600061338786828701612d5f565b935050602084013567ffffffffffffffff8111156133a8576133a7612c7e565b5b6133b486828701613289565b92509250509250925092565b6133c9816131e6565b81146133d457600080fd5b50565b6000813590506133e6816133c0565b92915050565b6000806040838503121561340357613402612c79565b5b6000613411858286016133d7565b925050602061342285828601612d5f565b9150509250929050565b60006020828403121561344257613441612c79565b5b600082013567ffffffffffffffff8111156134605761345f612c7e565b5b61346c84828501612f02565b91505092915050565b600081519050919050565b600082825260208201905092915050565b6000819050602082019050919050565b600081519050919050565b600082825260208201905092915050565b60006134c8826134a1565b6134d281856134ac565b93506134e281856020860161315a565b6134eb81612da6565b840191505092915050565b600061350283836134bd565b905092915050565b6000602082019050919050565b600061352282613475565b61352c8185613480565b93508360208202850161353e85613491565b8060005b8581101561357a578484038952815161355b85826134f6565b94506135668361350a565b925060208a01995050600181019050613542565b50829750879550505050505092915050565b600060208201905081810360008301526135a68184613517565b905092915050565b6000602082840312156135c4576135c3612c79565b5b60006135d284828501612e84565b91505092915050565b600082825260208201905092915050565b60006135f7826134a1565b61360181856135db565b935061361181856020860161315a565b61361a81612da6565b840191505092915050565b6000602082019050818103600083015261363f81846135ec565b905092915050565b60006020828403121561365d5761365c612c79565b5b600061366b848285016133d7565b91505092915050565b61367d81612d08565b811461368857600080fd5b50565b60008135905061369a81613674565b92915050565b600080600080608085870312156136ba576136b9612c79565b5b60006136c8878288016133d7565b94505060206136d987828801612d5f565b93505060406136ea8782880161368b565b925050606085013567ffffffffffffffff81111561370b5761370a612c7e565b5b61371787828801612fe3565b91505092959194509250565b600080600080600060a0868803121561373f5761373e612c79565b5b600061374d888289016133d7565b955050602061375e888289016133d7565b945050604061376f88828901612d5f565b93505060606137808882890161368b565b925050608086013567ffffffffffffffff8111156137a1576137a0612c7e565b5b6137ad88828901612fe3565b9150509295509295909350565b600080604083850312156137d1576137d0612c79565b5b60006137df85828601612e84565b925050602083013567ffffffffffffffff811115613800576137ff612c7e565b5b61380c85828601612fe3565b9150509250929050565b600060208201905061382b60008301846131f8565b92915050565b6000806040838503121561384857613847612c79565b5b600061385685828601612d5f565b925050602061386785828601612d5f565b9150509250929050565b600067ffffffffffffffff82111561388c5761388b612db7565b5b602082029050602081019050919050565b60006138b06138ab84613871565b612e17565b905080838252602082019050602084028301858111156138d3576138d2612e5e565b5b835b818110156138fc57806138e888826133d7565b8452602084019350506020810190506138d5565b5050509392505050565b600082601f83011261391b5761391a612da1565b5b813561392b84826020860161389d565b91505092915050565b600067ffffffffffffffff82111561394f5761394e612db7565b5b602082029050602081019050919050565b600061397361396e84613934565b612e17565b9050808382526020820190506020840283018581111561399657613995612e5e565b5b835b818110156139bf57806139ab8882612d5f565b845260208401935050602081019050613998565b5050509392505050565b600082601f8301126139de576139dd612da1565b5b81356139ee848260208601613960565b91505092915050565b600080600080600060a08688031215613a1357613a12612c79565b5b600086013567ffffffffffffffff811115613a3157613a30612c7e565b5b613a3d88828901613906565b955050602086013567ffffffffffffffff811115613a5e57613a5d612c7e565b5b613a6a88828901613906565b945050604086013567ffffffffffffffff811115613a8b57613a8a612c7e565b5b613a97888289016139c9565b9350506060613aa88882890161368b565b925050608086013567ffffffffffffffff811115613ac957613ac8612c7e565b5b613ad588828901613098565b9150509295509295909350565b600081519050919050565b600082825260208201905092915050565b6000819050602082019050919050565b600082825260208201905092915050565b6000613b2a8261313e565b613b348185613b0e565b9350613b4481856020860161315a565b613b4d81612da6565b840191505092915050565b613b61816131e6565b82525050565b600081519050919050565b600082825260208201905092915050565b6000819050602082019050919050565b6000613b9f8383613b58565b60208301905092915050565b6000602082019050919050565b6000613bc382613b67565b613bcd8185613b72565b9350613bd883613b83565b8060005b83811015613c09578151613bf08882613b93565b9750613bfb83613bab565b925050600181019050613bdc565b5085935050505092915050565b600081519050919050565b600082825260208201905092915050565b6000819050602082019050919050565b613c4b81612d3e565b82525050565b60006060830160008301518482036000860152613c6e8282613b1f565b9150506020830151613c836020860182613b58565b506040830151613c966040860182613c42565b508091505092915050565b6000613cad8383613c51565b905092915050565b6000602082019050919050565b6000613ccd82613c16565b613cd78185613c21565b935083602082028501613ce985613c32565b8060005b85811015613d255784840389528151613d068582613ca1565b9450613d1183613cb5565b925060208a01995050600181019050613ced565b50829750879550505050505092915050565b600060c0830160008301518482036000860152613d548282613b1f565b91505060208301518482036020860152613d6e8282613b1f565b9150506040830151613d836040860182613b58565b5060608301518482036060860152613d9b8282613bb8565b91505060808301518482036080860152613db58282613cc2565b91505060a0830151613dca60a0860182613c42565b508091505092915050565b6000613de18383613d37565b905092915050565b6000602082019050919050565b6000613e0182613ae2565b613e0b8185613aed565b935083602082028501613e1d85613afe565b8060005b85811015613e595784840389528151613e3a8582613dd5565b9450613e4583613de9565b925060208a01995050600181019050613e21565b50829750879550505050505092915050565b60006040820190508181036000830152613e858185613df6565b9050613e946020830184613207565b9392505050565b600080600080600060608688031215613eb757613eb6612c79565b5b6000613ec588828901612d5f565b955050602086013567ffffffffffffffff811115613ee657613ee5612c7e565b5b613ef288828901613289565b9450945050604086013567ffffffffffffffff811115613f1557613f14612c7e565b5b613f2188828901613289565b92509250509295509295909350565b60008060408385031215613f4757613f46612c79565b5b6000613f55858286016133d7565b9250506020613f66858286016133d7565b9150509250929050565b7f617574686f72206f722061646d696e2063616e2064656c65746520706f737400600082015250565b6000613fa6601f83613149565b9150613fb182613f70565b602082019050919050565b60006020820190508181036000830152613fd581613f99565b9050919050565b7f4e487b7100000000000000000000000000000000000000000000000000000000600052603260045260246000fd5b7f4b657973206c656e677468206e6f7420657175616c20746f2076616c7565732060008201527f6c656e6774680000000000000000000000000000000000000000000000000000602082015250565b6000614067602683613149565b91506140728261400b565b604082019050919050565b600060208201905081810360008301526140968161405a565b9050919050565b7f4e487b7100000000000000000000000000000000000000000000000000000000600052602260045260246000fd5b600060028204905060018216806140e457607f821691505b6020821081036140f7576140f661409d565b5b50919050565b600082905092915050565b60008190508160005260206000209050919050565b60006020601f8301049050919050565b600082821b905092915050565b60006008830261416a7fffffffffffffffffffffffffffffffffffffffffffffffffffffffffffffffff8261412d565b614174868361412d565b95508019841693508086168417925050509392505050565b6000819050919050565b60006141b16141ac6141a784612d3e565b61418c565b612d3e565b9050919050565b6000819050919050565b6141cb83614196565b6141df6141d7826141b8565b84845461413a565b825550505050565b600090565b6141f46141e7565b6141ff8184846141c2565b505050565b5b81811015614223576142186000826141ec565b600181019050614205565b5050565b601f8211156142685761423981614108565b6142428461411d565b81016020851015614251578190505b61426561425d8561411d565b830182614204565b50505b505050565b600082821c905092915050565b600061428b6000198460080261426d565b1980831691505092915050565b60006142a4838361427a565b9150826002028217905092915050565b6142be83836140fd565b67ffffffffffffffff8111156142d7576142d6612db7565b5b6142e182546140cc565b6142ec828285614227565b6000601f83116001811461431b5760008415614309578287013590505b6143138582614298565b86555061437b565b601f19841661432986614108565b60005b828110156143515784890135825560018201915060208501945060208101905061432c565b8683101561436e578489013561436a601f89168261427a565b8355505b6001600288020188555050505b50505050505050565b7f4e487b7100000000000000000000000000000000000000000000000000000000600052601160045260246000fd5b60006143be82612d3e565b91507fffffffffffffffffffffffffffffffffffffffffffffffffffffffffffffffff82036143f0576143ef614384565b5b600182019050919050565b60008154905061440a816140cc565b9050919050565b81810361441f5750506144f7565b614428826143fb565b67ffffffffffffffff81111561444157614440612db7565b5b61444b82546140cc565b614456828285614227565b6000601f8311600181146144855760008415614473578287015490505b61447d8582614298565b8655506144f0565b601f19841661449387614108565b965061449e86614108565b60005b828110156144c6578489015482556001820191506001850194506020810190506144a1565b868310156144e357848901546144df601f89168261427a565b8355505b6001600288020188555050505b5050505050505b565b6145028261313e565b67ffffffffffffffff81111561451b5761451a612db7565b5b61452582546140cc565b614530828285614227565b600060209050601f8311600181146145635760008415614551578287015190505b61455b8582614298565b8655506145c3565b601f19841661457186614108565b60005b8281101561459957848901518255600182019150602085019450602081019050614574565b868310156145b657848901516145b2601f89168261427a565b8355505b6001600288020188555050505b505050505050565b60006080820190506145e060008301876131f8565b6145ed6020830186613207565b6145fa60408301856131f8565b6146076060830184613207565b95945050505050565b600061461b82612d3e565b915061462683612d3e565b92508282101561463957614638614384565b5b828203905092915050565b7f4f6e6c7920706f737420617574686f72206f7220636f6d6d656e746f7220636160008201527f6e2072656d6f766520636f6d6d656e7400000000000000000000000000000000602082015250565b60006146a0603083613149565b91506146ab82614644565b604082019050919050565b600060208201905081810360008301526146cf81614693565b9050919050565b7f4f6e6c7920617574686f722063616e206564697420706f737400000000000000600082015250565b600061470c601983613149565b9150614717826146d6565b602082019050919050565b6000602082019050818103600083015261473b816146ff565b9050919050565b7f4f776e61626c653a206e6577206f776e657220697320746865207a65726f206160008201527f6464726573730000000000000000000000000000000000000000000000000000602082015250565b600061479e602683613149565b91506147a982614742565b604082019050919050565b600060208201905081810360008301526147cd81614791565b9050919050565b60008190508160005260206000209050919050565b601f82111561482a576147fb816147d4565b6148048461411d565b81016020851015614813578190505b61482761481f8561411d565b830182614204565b50505b505050565b614838826134a1565b67ffffffffffffffff81111561485157614850612db7565b5b61485b82546140cc565b6148668282856147e9565b600060209050601f8311600181146148995760008415614887578287015190505b6148918582614298565b8655506148f9565b601f1984166148a7866147d4565b60005b828110156148cf578489015182556001820191506020850194506020810190506148aa565b868310156148ec57848901516148e8601f89168261427a565b8355505b6001600288020188555050505b505050505050565b7f4f776e61626c653a2063616c6c6572206973206e6f7420746865206f776e6572600082015250565b6000614937602083613149565b915061494282614901565b602082019050919050565b600060208201905081810360008301526149668161492a565b9050919050565b600061497882612d3e565b915061498383612d3e565b9250827fffffffffffffffffffffffffffffffffffffffffffffffffffffffffffffffff038211156149b8576149b7614384565b5b828201905092915050565b60006060820190506149d86000830186613207565b6149e56020830185612d14565b81810360408301526149f781846135ec565b9050949350505050565b6000606082019050614a166000830186613207565b614a2360208301856131f8565b614a306040830184613207565b949350505050565b60008160601b9050919050565b6000614a5082614a38565b9050919050565b6000614a6282614a45565b9050919050565b614a7a614a75826131e6565b614a57565b82525050565b6000819050919050565b614a9b614a9682612d3e565b614a80565b82525050565b600081905092915050565b6000614ab7826134a1565b614ac18185614aa1565b9350614ad181856020860161315a565b80840191505092915050565b6000614ae98287614a69565b601482019150614af98286614a69565b601482019150614b098285614a8a565b602082019150614b198284614aac565b915081905095945050505050565b614b3081612e63565b82525050565b6000604082019050614b4b6000830185614b27565b8181036020830152614b5d81846135ec565b90509392505050565b6000614b79614b7484612f61565b612e17565b905082815260208101848484011115614b9557614b94612f5c565b5b614ba084828561315a565b509392505050565b600082601f830112614bbd57614bbc612da1565b5b8151614bcd848260208601614b66565b91505092915050565b600060208284031215614bec57614beb612c79565b5b600082015167ffffffffffffffff811115614c0a57614c09612c7e565b5b614c1684828501614ba8565b91505092915050565b614c2881612c83565b82525050565b6000602082019050614c436000830184614c1f565b92915050565b6000614c558284614aac565b915081905092915050565b600081519050614c6f81613674565b92915050565b600060208284031215614c8b57614c8a612c79565b5b6000614c9984828501614c60565b9150509291505056fea2646970667358221220438000f1d2f08f380e96398c87636a765bd1df82abf255eedfa74e6c491dfc8964736f6c634300080f0033",
  "linkReferences": {},
  "deployedLinkReferences": {}
}