{
  "_format": "hh-sol-artifact-1",
  "contractName": "ForumNFT",
  "sourceName": "contracts/ForumNFT.sol",
  "abi": [
    {
      "inputs": [
        {
          "internalType": "string",
          "name": "_name",
          "type": "string"
        },
        {
          "internalType": "string",
          "name": "_symbol",
          "type": "string"
        },
        {
          "internalType": "address",
          "name": "_newOwner",
          "type": "address"
        },
        {
          "internalType": "bool",
          "name": "_isNFT",
          "type": "bool"
        }
      ],
      "stateMutability": "nonpayable",
      "type": "constructor"
    },
    {
      "inputs": [],
      "name": "LSP4TokenNameNotEditable",
      "type": "error"
    },
    {
      "inputs": [],
      "name": "LSP4TokenSymbolNotEditable",
      "type": "error"
    },
    {
      "inputs": [
        {
          "internalType": "address",
          "name": "tokenOwner",
          "type": "address"
        },
        {
          "internalType": "uint256",
          "name": "authorizedAmount",
          "type": "uint256"
        },
        {
          "internalType": "address",
          "name": "operator",
          "type": "address"
        },
        {
          "internalType": "uint256",
          "name": "amount",
          "type": "uint256"
        }
      ],
      "name": "LSP7AmountExceedsAuthorizedAmount",
      "type": "error"
    },
    {
      "inputs": [
        {
          "internalType": "uint256",
          "name": "balance",
          "type": "uint256"
        },
        {
          "internalType": "address",
          "name": "tokenOwner",
          "type": "address"
        },
        {
          "internalType": "uint256",
          "name": "amount",
          "type": "uint256"
        }
      ],
      "name": "LSP7AmountExceedsBalance",
      "type": "error"
    },
    {
      "inputs": [],
      "name": "LSP7CannotSendWithAddressZero",
      "type": "error"
    },
    {
      "inputs": [],
      "name": "LSP7CannotUseAddressZeroAsOperator",
      "type": "error"
    },
    {
      "inputs": [],
      "name": "LSP7InvalidTransferBatch",
      "type": "error"
    },
    {
      "inputs": [
        {
          "internalType": "address",
          "name": "tokenReceiver",
          "type": "address"
        }
      ],
      "name": "LSP7NotifyTokenReceiverContractMissingLSP1Interface",
      "type": "error"
    },
    {
      "inputs": [
        {
          "internalType": "address",
          "name": "tokenReceiver",
          "type": "address"
        }
      ],
      "name": "LSP7NotifyTokenReceiverIsEOA",
      "type": "error"
    },
    {
      "anonymous": false,
      "inputs": [
        {
          "indexed": true,
          "internalType": "address",
          "name": "operator",
          "type": "address"
        },
        {
          "indexed": true,
          "internalType": "address",
          "name": "tokenOwner",
          "type": "address"
        },
        {
          "indexed": true,
          "internalType": "uint256",
          "name": "amount",
          "type": "uint256"
        }
      ],
      "name": "AuthorizedOperator",
      "type": "event"
    },
    {
      "anonymous": false,
      "inputs": [
        {
          "indexed": true,
          "internalType": "bytes32",
          "name": "dataKey",
          "type": "bytes32"
        }
      ],
      "name": "DataChanged",
      "type": "event"
    },
    {
      "anonymous": false,
      "inputs": [
        {
          "indexed": true,
          "internalType": "address",
          "name": "previousOwner",
          "type": "address"
        },
        {
          "indexed": true,
          "internalType": "address",
          "name": "newOwner",
          "type": "address"
        }
      ],
      "name": "OwnershipTransferred",
      "type": "event"
    },
    {
      "anonymous": false,
      "inputs": [
        {
          "indexed": true,
          "internalType": "address",
          "name": "operator",
          "type": "address"
        },
        {
          "indexed": true,
          "internalType": "address",
          "name": "tokenOwner",
          "type": "address"
        }
      ],
      "name": "RevokedOperator",
      "type": "event"
    },
    {
      "anonymous": false,
      "inputs": [
        {
          "indexed": true,
          "internalType": "address",
          "name": "operator",
          "type": "address"
        },
        {
          "indexed": true,
          "internalType": "address",
          "name": "from",
          "type": "address"
        },
        {
          "indexed": true,
          "internalType": "address",
          "name": "to",
          "type": "address"
        },
        {
          "indexed": false,
          "internalType": "uint256",
          "name": "amount",
          "type": "uint256"
        },
        {
          "indexed": false,
          "internalType": "bool",
          "name": "force",
          "type": "bool"
        },
        {
          "indexed": false,
          "internalType": "bytes",
          "name": "data",
          "type": "bytes"
        }
      ],
      "name": "Transfer",
      "type": "event"
    },
    {
      "inputs": [
        {
          "internalType": "address",
          "name": "operator",
          "type": "address"
        },
        {
          "internalType": "uint256",
          "name": "amount",
          "type": "uint256"
        }
      ],
      "name": "authorizeOperator",
      "outputs": [],
      "stateMutability": "nonpayable",
      "type": "function"
    },
    {
      "inputs": [
        {
          "internalType": "address",
          "name": "tokenOwner",
          "type": "address"
        }
      ],
      "name": "balanceOf",
      "outputs": [
        {
          "internalType": "uint256",
          "name": "",
          "type": "uint256"
        }
      ],
      "stateMutability": "view",
      "type": "function"
    },
    {
      "inputs": [
        {
          "internalType": "address",
          "name": "_newAdmin",
          "type": "address"
        }
      ],
      "name": "changeAdmin",
      "outputs": [],
      "stateMutability": "nonpayable",
      "type": "function"
    },
    {
      "inputs": [
        {
          "internalType": "uint256",
          "name": "_tokenId",
          "type": "uint256"
        },
        {
          "internalType": "string",
          "name": "_text",
          "type": "string"
        }
      ],
      "name": "createComment",
      "outputs": [],
      "stateMutability": "nonpayable",
      "type": "function"
    },
    {
      "inputs": [
        {
          "internalType": "string",
          "name": "_title",
          "type": "string"
        },
        {
          "internalType": "string",
          "name": "_text",
          "type": "string"
        }
      ],
      "name": "createPost",
      "outputs": [],
      "stateMutability": "nonpayable",
      "type": "function"
    },
    {
      "inputs": [],
      "name": "decimals",
      "outputs": [
        {
          "internalType": "uint256",
          "name": "",
          "type": "uint256"
        }
      ],
      "stateMutability": "view",
      "type": "function"
    },
    {
      "inputs": [
        {
          "internalType": "uint256",
          "name": "_tokenId",
          "type": "uint256"
        }
      ],
      "name": "deletePost",
      "outputs": [],
      "stateMutability": "nonpayable",
      "type": "function"
    },
    {
      "inputs": [
        {
          "internalType": "uint256",
          "name": "_tokenId",
          "type": "uint256"
        },
        {
          "internalType": "string",
          "name": "_title",
          "type": "string"
        },
        {
          "internalType": "string",
          "name": "_text",
          "type": "string"
        }
      ],
      "name": "editPost",
      "outputs": [],
      "stateMutability": "nonpayable",
      "type": "function"
    },
    {
      "inputs": [],
      "name": "fetchPosts",
      "outputs": [
        {
          "components": [
            {
              "internalType": "string",
              "name": "title",
              "type": "string"
            },
            {
              "internalType": "string",
              "name": "text",
              "type": "string"
            },
            {
              "internalType": "address",
              "name": "author",
              "type": "address"
            },
            {
              "internalType": "address[]",
              "name": "likes",
              "type": "address[]"
            },
            {
              "components": [
                {
                  "internalType": "string",
                  "name": "text",
                  "type": "string"
                },
                {
                  "internalType": "address",
                  "name": "commentor",
                  "type": "address"
                },
                {
                  "internalType": "uint256",
                  "name": "id",
                  "type": "uint256"
                }
              ],
              "internalType": "struct ForumNFT.Comment[]",
              "name": "comments",
              "type": "tuple[]"
            },
            {
              "internalType": "uint256",
              "name": "id",
              "type": "uint256"
            }
          ],
          "internalType": "struct ForumNFT.Post[]",
          "name": "posts",
          "type": "tuple[]"
        },
        {
          "internalType": "uint256",
          "name": "",
          "type": "uint256"
        },
        {
          "internalType": "uint256",
          "name": "",
          "type": "uint256"
        }
      ],
      "stateMutability": "view",
      "type": "function"
    },
    {
      "inputs": [
        {
          "internalType": "bytes32[]",
          "name": "dataKeys",
          "type": "bytes32[]"
        }
      ],
      "name": "getData",
      "outputs": [
        {
          "internalType": "bytes[]",
          "name": "dataValues",
          "type": "bytes[]"
        }
      ],
      "stateMutability": "view",
      "type": "function"
    },
    {
      "inputs": [
        {
          "internalType": "bytes32",
          "name": "dataKey",
          "type": "bytes32"
        }
      ],
      "name": "getData",
      "outputs": [
        {
          "internalType": "bytes",
          "name": "dataValue",
          "type": "bytes"
        }
      ],
      "stateMutability": "view",
      "type": "function"
    },
    {
      "inputs": [
        {
          "internalType": "address",
          "name": "operator",
          "type": "address"
        },
        {
          "internalType": "address",
          "name": "tokenOwner",
          "type": "address"
        }
      ],
      "name": "isOperatorFor",
      "outputs": [
        {
          "internalType": "uint256",
          "name": "",
          "type": "uint256"
        }
      ],
      "stateMutability": "view",
      "type": "function"
    },
    {
      "inputs": [
        {
          "internalType": "uint256",
          "name": "_tokenId",
          "type": "uint256"
        }
      ],
      "name": "like",
      "outputs": [],
      "stateMutability": "nonpayable",
      "type": "function"
    },
    {
      "inputs": [
        {
          "internalType": "address",
          "name": "to",
          "type": "address"
        },
        {
          "internalType": "uint256",
          "name": "amount",
          "type": "uint256"
        },
        {
          "internalType": "bool",
          "name": "force",
          "type": "bool"
        },
        {
          "internalType": "bytes",
          "name": "data",
          "type": "bytes"
        }
      ],
      "name": "mint",
      "outputs": [],
      "stateMutability": "nonpayable",
      "type": "function"
    },
    {
      "inputs": [],
      "name": "owner",
      "outputs": [
        {
          "internalType": "address",
          "name": "",
          "type": "address"
        }
      ],
      "stateMutability": "view",
      "type": "function"
    },
    {
      "inputs": [
        {
          "internalType": "uint256",
          "name": "",
          "type": "uint256"
        }
      ],
      "name": "postByTokenId",
      "outputs": [
        {
          "internalType": "string",
          "name": "title",
          "type": "string"
        },
        {
          "internalType": "string",
          "name": "text",
          "type": "string"
        },
        {
          "internalType": "address",
          "name": "author",
          "type": "address"
        },
        {
          "internalType": "uint256",
          "name": "id",
          "type": "uint256"
        }
      ],
      "stateMutability": "view",
      "type": "function"
    },
    {
      "inputs": [
        {
          "internalType": "uint256",
          "name": "",
          "type": "uint256"
        }
      ],
      "name": "postsIds",
      "outputs": [
        {
          "internalType": "uint256",
          "name": "",
          "type": "uint256"
        }
      ],
      "stateMutability": "view",
      "type": "function"
    },
    {
      "inputs": [
        {
          "internalType": "uint256",
          "name": "_tokenId",
          "type": "uint256"
        },
        {
          "internalType": "uint256",
          "name": "_commentId",
          "type": "uint256"
        }
      ],
      "name": "removeComment",
      "outputs": [],
      "stateMutability": "nonpayable",
      "type": "function"
    },
    {
      "inputs": [],
      "name": "renounceOwnership",
      "outputs": [],
      "stateMutability": "nonpayable",
      "type": "function"
    },
    {
      "inputs": [
        {
          "internalType": "address",
          "name": "operator",
          "type": "address"
        }
      ],
      "name": "revokeOperator",
      "outputs": [],
      "stateMutability": "nonpayable",
      "type": "function"
    },
    {
      "inputs": [
        {
          "internalType": "bytes32[]",
          "name": "dataKeys",
          "type": "bytes32[]"
        },
        {
          "internalType": "bytes[]",
          "name": "dataValues",
          "type": "bytes[]"
        }
      ],
      "name": "setData",
      "outputs": [],
      "stateMutability": "nonpayable",
      "type": "function"
    },
    {
      "inputs": [
        {
          "internalType": "bytes32",
          "name": "dataKey",
          "type": "bytes32"
        },
        {
          "internalType": "bytes",
          "name": "dataValue",
          "type": "bytes"
        }
      ],
      "name": "setData",
      "outputs": [],
      "stateMutability": "nonpayable",
      "type": "function"
    },
    {
      "inputs": [
        {
          "internalType": "bytes4",
          "name": "interfaceId",
          "type": "bytes4"
        }
      ],
      "name": "supportsInterface",
      "outputs": [
        {
          "internalType": "bool",
          "name": "",
          "type": "bool"
        }
      ],
      "stateMutability": "view",
      "type": "function"
    },
    {
      "inputs": [],
      "name": "totalSupply",
      "outputs": [
        {
          "internalType": "uint256",
          "name": "",
          "type": "uint256"
        }
      ],
      "stateMutability": "view",
      "type": "function"
    },
    {
      "inputs": [
        {
          "internalType": "address",
          "name": "from",
          "type": "address"
        },
        {
          "internalType": "address",
          "name": "to",
          "type": "address"
        },
        {
          "internalType": "uint256",
          "name": "amount",
          "type": "uint256"
        },
        {
          "internalType": "bool",
          "name": "force",
          "type": "bool"
        },
        {
          "internalType": "bytes",
          "name": "data",
          "type": "bytes"
        }
      ],
      "name": "transfer",
      "outputs": [],
      "stateMutability": "nonpayable",
      "type": "function"
    },
    {
      "inputs": [
        {
          "internalType": "address[]",
          "name": "from",
          "type": "address[]"
        },
        {
          "internalType": "address[]",
          "name": "to",
          "type": "address[]"
        },
        {
          "internalType": "uint256[]",
          "name": "amount",
          "type": "uint256[]"
        },
        {
          "internalType": "bool",
          "name": "force",
          "type": "bool"
        },
        {
          "internalType": "bytes[]",
          "name": "data",
          "type": "bytes[]"
        }
      ],
      "name": "transferBatch",
      "outputs": [],
      "stateMutability": "nonpayable",
      "type": "function"
    },
    {
      "inputs": [
        {
          "internalType": "address",
          "name": "newOwner",
          "type": "address"
        }
      ],
      "name": "transferOwnership",
      "outputs": [],
      "stateMutability": "nonpayable",
      "type": "function"
    }
  ],
  "bytecode": "0x60806040523480156200001157600080fd5b5060405162005b2638038062005b26833981810160405281019062000037919062000571565b8383838383838383838383806200005981620001ad60201b62001ea81760201c565b50620000c97feafec4d89fa9619884b60000a4d96624a38f7ac2d8d9a604ecf07c12c77e480c60001b6040518060400160405280600481526020017fa4d9662400000000000000000000000000000000000000000000000000000000815250620002b560201b62001fa71760201c565b620001037fdeba1e292f8ba88238e10ab3c7f88bd4be4fac56cad5194b6ecceaf653468af160001b84620002b560201b62001fa71760201c565b6200013d7f2f0a68ab07768e01943a599e73362a0e17a63a72e94dd2e384d2c1d4db93275660001b83620002b560201b62001fa71760201c565b50505080600260006101000a81548160ff021916908315150217905550505050505050505033601360006101000a81548173ffffffffffffffffffffffffffffffffffffffff021916908373ffffffffffffffffffffffffffffffffffffffff1602179055505050505062000953565b620001bd6200030960201b60201c565b73ffffffffffffffffffffffffffffffffffffffff168173ffffffffffffffffffffffffffffffffffffffff1614620002b25760008060009054906101000a900473ffffffffffffffffffffffffffffffffffffffff169050816000806101000a81548173ffffffffffffffffffffffffffffffffffffffff021916908373ffffffffffffffffffffffffffffffffffffffff1602179055508173ffffffffffffffffffffffffffffffffffffffff168173ffffffffffffffffffffffffffffffffffffffff167f8be0079c531659141344cd1fd0a4f28419497f9722a3daafe3b4186f6b6457e060405160405180910390a3505b50565b80600160008481526020019081526020016000209081620002d791906200086c565b50817fcdf4e344c0d23d4cdd0474039d176c55b19d531070dbe17856bfb993a5b5720b60405160405180910390a25050565b60008060009054906101000a900473ffffffffffffffffffffffffffffffffffffffff16905090565b6000604051905090565b600080fd5b600080fd5b600080fd5b600080fd5b6000601f19601f8301169050919050565b7f4e487b7100000000000000000000000000000000000000000000000000000000600052604160045260246000fd5b6200039b8262000350565b810181811067ffffffffffffffff82111715620003bd57620003bc62000361565b5b80604052505050565b6000620003d262000332565b9050620003e0828262000390565b919050565b600067ffffffffffffffff82111562000403576200040262000361565b5b6200040e8262000350565b9050602081019050919050565b60005b838110156200043b5780820151818401526020810190506200041e565b838111156200044b576000848401525b50505050565b6000620004686200046284620003e5565b620003c6565b9050828152602081018484840111156200048757620004866200034b565b5b620004948482856200041b565b509392505050565b600082601f830112620004b457620004b362000346565b5b8151620004c684826020860162000451565b91505092915050565b600073ffffffffffffffffffffffffffffffffffffffff82169050919050565b6000620004fc82620004cf565b9050919050565b6200050e81620004ef565b81146200051a57600080fd5b50565b6000815190506200052e8162000503565b92915050565b60008115159050919050565b6200054b8162000534565b81146200055757600080fd5b50565b6000815190506200056b8162000540565b92915050565b600080600080608085870312156200058e576200058d6200033c565b5b600085015167ffffffffffffffff811115620005af57620005ae62000341565b5b620005bd878288016200049c565b945050602085015167ffffffffffffffff811115620005e157620005e062000341565b5b620005ef878288016200049c565b935050604062000602878288016200051d565b925050606062000615878288016200055a565b91505092959194509250565b600081519050919050565b7f4e487b7100000000000000000000000000000000000000000000000000000000600052602260045260246000fd5b600060028204905060018216806200067457607f821691505b6020821081036200068a57620006896200062c565b5b50919050565b60008190508160005260206000209050919050565b60006020601f8301049050919050565b600082821b905092915050565b600060088302620006f47fffffffffffffffffffffffffffffffffffffffffffffffffffffffffffffffff82620006b5565b620007008683620006b5565b95508019841693508086168417925050509392505050565b6000819050919050565b6000819050919050565b60006200074d62000747620007418462000718565b62000722565b62000718565b9050919050565b6000819050919050565b62000769836200072c565b62000781620007788262000754565b848454620006c2565b825550505050565b600090565b6200079862000789565b620007a58184846200075e565b505050565b5b81811015620007cd57620007c16000826200078e565b600181019050620007ab565b5050565b601f8211156200081c57620007e68162000690565b620007f184620006a5565b8101602085101562000801578190505b620008196200081085620006a5565b830182620007aa565b50505b505050565b600082821c905092915050565b6000620008416000198460080262000821565b1980831691505092915050565b60006200085c83836200082e565b9150826002028217905092915050565b620008778262000621565b67ffffffffffffffff81111562000893576200089262000361565b5b6200089f82546200065b565b620008ac828285620007d1565b600060209050601f831160018114620008e45760008415620008cf578287015190505b620008db85826200084e565b8655506200094b565b601f198416620008f48662000690565b60005b828110156200091e57848901518255600182019150602085019450602081019050620008f7565b868310156200093e57848901516200093a601f8916826200082e565b8355505b6001600288020188555050505b505050505050565b6151c380620009636000396000f3fe608060405234801561001057600080fd5b50600436106101a95760003560e01c80637580d920116100f9578063abaddd7f11610097578063d95b637111610071578063d95b6371146104a5578063e82935da146104d5578063f2fde38b146104f1578063fad8b32a1461050d576101a9565b8063abaddd7f14610439578063abe48cc914610459578063bf0ac63c14610489576101a9565b80638da5cb5b116100d35780638da5cb5b146103c75780638f283970146103e5578063a71eb6a114610401578063a8a34e0a1461041d576101a9565b80637580d92014610373578063760d9bba1461038f5780637f23690c146103ab576101a9565b8063392338f5116101665780634e3e6e9c116101405780634e3e6e9c146102d957806354f6127f1461030957806370a0823114610339578063715018a614610369576101a9565b8063392338f51461028557806340a17985146102a157806347980aa3146102bd576101a9565b806301ffc9a7146101ae578063094cd5ee146101de57806314a6e293146101fa57806316ebbe041461021657806318160ddd14610249578063313ce56714610267575b600080fd5b6101c860048036038101906101c39190613189565b610529565b6040516101d591906131d1565b60405180910390f35b6101f860048036038101906101f39190613222565b61058a565b005b610214600480360381019061020f9190613574565b6107e7565b005b610230600480360381019061022b9190613222565b610892565b60405161024094939291906136c4565b60405180910390f35b6102516109f2565b60405161025e9190613717565b60405180910390f35b61026f6109fc565b60405161027c9190613717565b60405180910390f35b61029f600480360381019061029a919061378d565b610a24565b005b6102bb60048036038101906102b6919061380e565b610be2565b005b6102d760048036038101906102d2919061389a565b610d1e565b005b6102f360048036038101906102ee91906138da565b610d34565b6040516103009190613a3a565b60405180910390f35b610323600480360381019061031e9190613a5c565b610dea565b6040516103309190613ad3565b60405180910390f35b610353600480360381019061034e9190613af5565b610dfc565b6040516103609190613717565b60405180910390f35b610371610e45565b005b61038d60048036038101906103889190613b4e565b610e59565b005b6103a960048036038101906103a49190613bd1565b610e73565b005b6103c560048036038101906103c09190613c68565b610fab565b005b6103cf610fc1565b6040516103dc9190613cc4565b60405180910390f35b6103ff60048036038101906103fa9190613af5565b610fea565b005b61041b60048036038101906104169190613cdf565b611088565b005b61043760048036038101906104329190613ea5565b6114c6565b005b6104416115b9565b60405161045093929190614319565b60405180910390f35b610473600480360381019061046e9190613222565b611a57565b6040516104809190613717565b60405180910390f35b6104a3600480360381019061049e9190614357565b611a7b565b005b6104bf60048036038101906104ba91906143ec565b611b72565b6040516104cc9190613717565b60405180910390f35b6104ef60048036038101906104ea9190613222565b611c74565b005b61050b60048036038101906105069190613af5565b611e0f565b005b61052760048036038101906105229190613af5565b611e92565b005b600063e33f65c360e01b7bffffffffffffffffffffffffffffffffffffffffffffffffffffffff1916827bffffffffffffffffffffffffffffffffffffffffffffffffffffffff19161480610583575061058282611ff9565b5b9050919050565b3373ffffffffffffffffffffffffffffffffffffffff166010600083815260200190815260200160002060020160009054906101000a900473ffffffffffffffffffffffffffffffffffffffff1673ffffffffffffffffffffffffffffffffffffffff16148061064757503373ffffffffffffffffffffffffffffffffffffffff16601360009054906101000a900473ffffffffffffffffffffffffffffffffffffffff1673ffffffffffffffffffffffffffffffffffffffff16145b610686576040517f08c379a000000000000000000000000000000000000000000000000000000000815260040161067d90614478565b60405180910390fd5b6000600f8054806020026020016040519081016040528092919081815260200182805480156106d457602002820191906000526020600020905b8154815260200190600101908083116106c0575b50505050509050600081519050600080600090505b8281101561072d578484828151811061070557610704614498565b5b60200260200101510361071a5780915061072d565b8080610725906144f6565b9150506106e9565b5060008190505b600183610741919061453e565b8110156107a157836001826107569190614572565b8151811061076757610766614498565b5b602002602001015184828151811061078257610781614498565b5b6020026020010181815250508080610799906144f6565b915050610734565b5082600f90805190602001906107b8929190612dc3565b50600f8054806107cb576107ca6145c8565b5b6001900381819060005260206000200160009055905550505050565b6107ef61205a565b8051825114610833576040517f08c379a000000000000000000000000000000000000000000000000000000000815260040161082a90614669565b60405180910390fd5b60005b825181101561088d5761087d83828151811061085557610854614498565b5b60200260200101518383815181106108705761086f614498565b5b60200260200101516120d1565b61088681612197565b9050610836565b505050565b60106020528060005260406000206000915090508060000180546108b5906146b8565b80601f01602080910402602001604051908101604052809291908181526020018280546108e1906146b8565b801561092e5780601f106109035761010080835404028352916020019161092e565b820191906000526020600020905b81548152906001019060200180831161091157829003601f168201915b505050505090806001018054610943906146b8565b80601f016020809104026020016040519081016040528092919081815260200182805461096f906146b8565b80156109bc5780601f10610991576101008083540402835291602001916109bc565b820191906000526020600020905b81548152906001019060200180831161099f57829003601f168201915b5050505050908060020160009054906101000a900473ffffffffffffffffffffffffffffffffffffffff16908060050154905084565b6000600354905090565b6000600260009054906101000a900460ff16610a19576012610a1c565b60005b60ff16905090565b838360066000019182610a389291906148a0565b50818160066001019182610a4d9291906148a0565b5033600660020160006101000a81548173ffffffffffffffffffffffffffffffffffffffff021916908373ffffffffffffffffffffffffffffffffffffffff160217905550601160008154610aa1906144f6565b919050819055600660050181905550600660106000601154815260200190815260200160002060008201816000019081610adb9190614986565b5060018201816001019081610af09190614986565b506002820160009054906101000a900473ffffffffffffffffffffffffffffffffffffffff168160020160006101000a81548173ffffffffffffffffffffffffffffffffffffffff021916908373ffffffffffffffffffffffffffffffffffffffff1602179055506003820181600301908054610b6e929190612e10565b506004820181600401908054610b85929190612e62565b5060058201548160050155905050600f6011549080600181540180825580915050600190039060005260206000200160009091909190915055610bdc336011546001604051806020016040528060008152506121a4565b50505050565b6000604051806060016040528084848080601f016020809104026020016040519081016040528093929190818152602001838380828437600081840152601f19601f8201169050808301925050505050505081526020013373ffffffffffffffffffffffffffffffffffffffff168152602001601260008154610c64906144f6565b9190508190558152509050601060008581526020019081526020016000206004018190806001815401808255809150506001900390600052602060002090600302016000909190919091506000820151816000019081610cc49190614a6e565b5060208201518160010160006101000a81548173ffffffffffffffffffffffffffffffffffffffff021916908373ffffffffffffffffffffffffffffffffffffffff16021790555060408201518160020155505050505050565b610d30610d2961230e565b8383612316565b5050565b6060815167ffffffffffffffff811115610d5157610d50613265565b5b604051908082528060200260200182016040528015610d8457816020015b6060815260200190600190039081610d6f5790505b50905060005b8251811015610de457610db6838281518110610da957610da8614498565b5b60200260200101516124fa565b828281518110610dc957610dc8614498565b5b6020026020010181905250610ddd81612197565b9050610d8a565b50919050565b6060610df5826124fa565b9050919050565b6000600460008373ffffffffffffffffffffffffffffffffffffffff1673ffffffffffffffffffffffffffffffffffffffff168152602001908152602001600020549050919050565b610e4d61205a565b610e576000611ea8565b565b610e6161205a565b610e6d848484846121a4565b50505050565b6000610e7d61230e565b90508573ffffffffffffffffffffffffffffffffffffffff168173ffffffffffffffffffffffffffffffffffffffff1614610f96576000600560008873ffffffffffffffffffffffffffffffffffffffff1673ffffffffffffffffffffffffffffffffffffffff16815260200190815260200160002060008373ffffffffffffffffffffffffffffffffffffffff1673ffffffffffffffffffffffffffffffffffffffff16815260200190815260200160002054905080851115610f7e57868183876040517ff3a6b691000000000000000000000000000000000000000000000000000000008152600401610f759493929190614b40565b60405180910390fd5b610f9487838784610f8f919061453e565b612316565b505b610fa3868686868661259f565b505050505050565b610fb361205a565b610fbd82826120d1565b5050565b60008060009054906101000a900473ffffffffffffffffffffffffffffffffffffffff16905090565b601360009054906101000a900473ffffffffffffffffffffffffffffffffffffffff1673ffffffffffffffffffffffffffffffffffffffff163373ffffffffffffffffffffffffffffffffffffffff161461104457600080fd5b80601360006101000a81548173ffffffffffffffffffffffffffffffffffffffff021916908373ffffffffffffffffffffffffffffffffffffffff16021790555050565b3373ffffffffffffffffffffffffffffffffffffffff166010600084815260200190815260200160002060020160009054906101000a900473ffffffffffffffffffffffffffffffffffffffff1673ffffffffffffffffffffffffffffffffffffffff16148061112c57503373ffffffffffffffffffffffffffffffffffffffff16611114838361282f565b73ffffffffffffffffffffffffffffffffffffffff16145b8061118457503373ffffffffffffffffffffffffffffffffffffffff16601360009054906101000a900473ffffffffffffffffffffffffffffffffffffffff1673ffffffffffffffffffffffffffffffffffffffff16145b6111c3576040517f08c379a00000000000000000000000000000000000000000000000000000000081526004016111ba90614bf7565b60405180910390fd5b600060106000848152602001908152602001600020600401805480602002602001604051908101604052809291908181526020016000905b8282101561131f578382906000526020600020906003020160405180606001604052908160008201805461122e906146b8565b80601f016020809104026020016040519081016040528092919081815260200182805461125a906146b8565b80156112a75780601f1061127c576101008083540402835291602001916112a7565b820191906000526020600020905b81548152906001019060200180831161128a57829003601f168201915b505050505081526020016001820160009054906101000a900473ffffffffffffffffffffffffffffffffffffffff1673ffffffffffffffffffffffffffffffffffffffff1673ffffffffffffffffffffffffffffffffffffffff168152602001600282015481525050815260200190600101906111fb565b5050505090506000815190506001810361135f57600d60106000868152602001908152602001600020600401908054611359929190612f40565b506114c0565b600d600e908054611371929190612f40565b5060005b81811015611497578383828151811061139157611390614498565b5b6020026020010151604001511461148c57600e6010600087815260200190815260200160002060040182815481106113cc576113cb614498565b5b90600052602060002090600302019080600181540180825580915050600190039060005260206000209060030201600090919091909150600082018160000190816114179190614986565b506001820160009054906101000a900473ffffffffffffffffffffffffffffffffffffffff168160010160006101000a81548173ffffffffffffffffffffffffffffffffffffffff021916908373ffffffffffffffffffffffffffffffffffffffff1602179055506002820154816002015550505b806001019050611375565b50600e601060008681526020019081526020016000206004019080546114be929190612f40565b505b50505050565b835185511415806114d957508251855114155b806114e657508051855114155b1561151d576040517f263eee8d00000000000000000000000000000000000000000000000000000000815260040160405180910390fd5b60005b85518110156115b15761159e86828151811061153f5761153e614498565b5b602002602001015186838151811061155a57611559614498565b5b602002602001015186848151811061157557611574614498565b5b60200260200101518686868151811061159157611590614498565b5b6020026020010151610e73565b80806115a9906144f6565b915050611520565b505050505050565b60606000806000600f8054905090506000600f80548060200260200160405190810160405280929190818152602001828054801561161657602002820191906000526020600020905b815481526020019060010190808311611602575b505050505090508167ffffffffffffffff81111561163757611636613265565b5b60405190808252806020026020018201604052801561167057816020015b61165d61301e565b8152602001906001900390816116555790505b50945060005b82811015611a42576010600083838151811061169557611694614498565b5b602002602001015181526020019081526020016000206040518060c00160405290816000820180546116c6906146b8565b80601f01602080910402602001604051908101604052809291908181526020018280546116f2906146b8565b801561173f5780601f106117145761010080835404028352916020019161173f565b820191906000526020600020905b81548152906001019060200180831161172257829003601f168201915b50505050508152602001600182018054611758906146b8565b80601f0160208091040260200160405190810160405280929190818152602001828054611784906146b8565b80156117d15780601f106117a6576101008083540402835291602001916117d1565b820191906000526020600020905b8154815290600101906020018083116117b457829003601f168201915b505050505081526020016002820160009054906101000a900473ffffffffffffffffffffffffffffffffffffffff1673ffffffffffffffffffffffffffffffffffffffff1673ffffffffffffffffffffffffffffffffffffffff168152602001600382018054806020026020016040519081016040528092919081815260200182805480156118b557602002820191906000526020600020905b8160009054906101000a900473ffffffffffffffffffffffffffffffffffffffff1673ffffffffffffffffffffffffffffffffffffffff168152602001906001019080831161186b575b5050505050815260200160048201805480602002602001604051908101604052809291908181526020016000905b82821015611a075783829060005260206000209060030201604051806060016040529081600082018054611916906146b8565b80601f0160208091040260200160405190810160405280929190818152602001828054611942906146b8565b801561198f5780601f106119645761010080835404028352916020019161198f565b820191906000526020600020905b81548152906001019060200180831161197257829003601f168201915b505050505081526020016001820160009054906101000a900473ffffffffffffffffffffffffffffffffffffffff1673ffffffffffffffffffffffffffffffffffffffff1673ffffffffffffffffffffffffffffffffffffffff168152602001600282015481525050815260200190600101906118e3565b505050508152602001600582015481525050868281518110611a2c57611a2b614498565b5b6020026020010181905250806001019050611676565b50846011546012549450945094505050909192565b600f8181548110611a6757600080fd5b906000526020600020016000915090505481565b3373ffffffffffffffffffffffffffffffffffffffff166010600087815260200190815260200160002060020160009054906101000a900473ffffffffffffffffffffffffffffffffffffffff1673ffffffffffffffffffffffffffffffffffffffff1614611b1f576040517f08c379a0000000000000000000000000000000000000000000000000000000008152600401611b1690614c63565b60405180910390fd5b8383601060008881526020019081526020016000206000019182611b449291906148a0565b508181601060008881526020019081526020016000206001019182611b6a9291906148a0565b505050505050565b60008273ffffffffffffffffffffffffffffffffffffffff168273ffffffffffffffffffffffffffffffffffffffff1603611bee57600460008373ffffffffffffffffffffffffffffffffffffffff1673ffffffffffffffffffffffffffffffffffffffff168152602001908152602001600020549050611c6e565b600560008373ffffffffffffffffffffffffffffffffffffffff1673ffffffffffffffffffffffffffffffffffffffff16815260200190815260200160002060008473ffffffffffffffffffffffffffffffffffffffff1673ffffffffffffffffffffffffffffffffffffffff1681526020019081526020016000205490505b92915050565b6000806010600084815260200190815260200160002060030180549050905060005b81811015611d8c573373ffffffffffffffffffffffffffffffffffffffff16601060008681526020019081526020016000206003018281548110611cdd57611cdc614498565b5b9060005260206000200160009054906101000a900473ffffffffffffffffffffffffffffffffffffffff1673ffffffffffffffffffffffffffffffffffffffff1603611d815760019250601060008581526020019081526020016000206003018181548110611d4f57611d4e614498565b5b9060005260206000200160006101000a81549073ffffffffffffffffffffffffffffffffffffffff0219169055611d8c565b806001019050611c96565b5081611e0a5760106000848152602001908152602001600020600301339080600181540180825580915050600190039060005260206000200160009091909190916101000a81548173ffffffffffffffffffffffffffffffffffffffff021916908373ffffffffffffffffffffffffffffffffffffffff1602179055505b505050565b611e1761205a565b600073ffffffffffffffffffffffffffffffffffffffff168173ffffffffffffffffffffffffffffffffffffffff1603611e86576040517f08c379a0000000000000000000000000000000000000000000000000000000008152600401611e7d90614cf5565b60405180910390fd5b611e8f81611ea8565b50565b611ea5611e9d61230e565b826000612316565b50565b611eb0610fc1565b73ffffffffffffffffffffffffffffffffffffffff168173ffffffffffffffffffffffffffffffffffffffff1614611fa45760008060009054906101000a900473ffffffffffffffffffffffffffffffffffffffff169050816000806101000a81548173ffffffffffffffffffffffffffffffffffffffff021916908373ffffffffffffffffffffffffffffffffffffffff1602179055508173ffffffffffffffffffffffffffffffffffffffff168173ffffffffffffffffffffffffffffffffffffffff167f8be0079c531659141344cd1fd0a4f28419497f9722a3daafe3b4186f6b6457e060405160405180910390a3505b50565b80600160008481526020019081526020016000209081611fc79190614d70565b50817fcdf4e344c0d23d4cdd0474039d176c55b19d531070dbe17856bfb993a5b5720b60405160405180910390a25050565b600063714df77c60e01b7bffffffffffffffffffffffffffffffffffffffffffffffffffffffff1916827bffffffffffffffffffffffffffffffffffffffffffffffffffffffff1916148061205357506120528261290b565b5b9050919050565b3373ffffffffffffffffffffffffffffffffffffffff16612079610fc1565b73ffffffffffffffffffffffffffffffffffffffff16146120cf576040517f08c379a00000000000000000000000000000000000000000000000000000000081526004016120c690614e8e565b60405180910390fd5b565b7fdeba1e292f8ba88238e10ab3c7f88bd4be4fac56cad5194b6ecceaf653468af160001b820361212d576040517f85c169bd00000000000000000000000000000000000000000000000000000000815260040160405180910390fd5b7f2f0a68ab07768e01943a599e73362a0e17a63a72e94dd2e384d2c1d4db93275660001b8203612189576040517f76755b3800000000000000000000000000000000000000000000000000000000815260040160405180910390fd5b6121938282611fa7565b5050565b6000600182019050919050565b600073ffffffffffffffffffffffffffffffffffffffff168473ffffffffffffffffffffffffffffffffffffffff160361220a576040517fd2d5ec3000000000000000000000000000000000000000000000000000000000815260040160405180910390fd5b600061221461230e565b905061222260008686612975565b83600460008773ffffffffffffffffffffffffffffffffffffffff1673ffffffffffffffffffffffffffffffffffffffff16815260200190815260200160002060008282546122719190614572565b925050819055508473ffffffffffffffffffffffffffffffffffffffff16600073ffffffffffffffffffffffffffffffffffffffff168273ffffffffffffffffffffffffffffffffffffffff167f3997e418d2cef0b3b0e907b1e39605c3f7d32dbd061e82ea5b4a770d46a160a68787876040516122f193929190614eae565b60405180910390a4612307600086868686612a16565b5050505050565b600033905090565b600073ffffffffffffffffffffffffffffffffffffffff168273ffffffffffffffffffffffffffffffffffffffff160361237c576040517f6355e76600000000000000000000000000000000000000000000000000000000815260040160405180910390fd5b8273ffffffffffffffffffffffffffffffffffffffff168273ffffffffffffffffffffffffffffffffffffffff1603156124f55780600560008573ffffffffffffffffffffffffffffffffffffffff1673ffffffffffffffffffffffffffffffffffffffff16815260200190815260200160002060008473ffffffffffffffffffffffffffffffffffffffff1673ffffffffffffffffffffffffffffffffffffffff168152602001908152602001600020819055506000811461249957808373ffffffffffffffffffffffffffffffffffffffff168373ffffffffffffffffffffffffffffffffffffffff167fd66aff874162a96578e919097b6f6d153dfd89a5cec41bb331fdb0c4aec16e2c60405160405180910390a46124f4565b8273ffffffffffffffffffffffffffffffffffffffff168273ffffffffffffffffffffffffffffffffffffffff167f50546e66e5f44d728365dc3908c63bc5cfeeab470722c1677e3073a6ac294aa160405160405180910390a35b5b505050565b606060016000838152602001908152602001600020805461251a906146b8565b80601f0160208091040260200160405190810160405280929190818152602001828054612546906146b8565b80156125935780601f1061256857610100808354040283529160200191612593565b820191906000526020600020905b81548152906001019060200180831161257657829003601f168201915b50505050509050919050565b600073ffffffffffffffffffffffffffffffffffffffff168573ffffffffffffffffffffffffffffffffffffffff1614806126065750600073ffffffffffffffffffffffffffffffffffffffff168473ffffffffffffffffffffffffffffffffffffffff16145b1561263d576040517fd2d5ec3000000000000000000000000000000000000000000000000000000000815260040160405180910390fd5b6000600460008773ffffffffffffffffffffffffffffffffffffffff1673ffffffffffffffffffffffffffffffffffffffff168152602001908152602001600020549050808411156126ca578086856040517f08d479490000000000000000000000000000000000000000000000000000000081526004016126c193929190614eec565b60405180910390fd5b60006126d461230e565b90506126e1878787612975565b84600460008973ffffffffffffffffffffffffffffffffffffffff1673ffffffffffffffffffffffffffffffffffffffff1681526020019081526020016000206000828254612730919061453e565b9250508190555084600460008873ffffffffffffffffffffffffffffffffffffffff1673ffffffffffffffffffffffffffffffffffffffff16815260200190815260200160002060008282546127869190614572565b925050819055508573ffffffffffffffffffffffffffffffffffffffff168773ffffffffffffffffffffffffffffffffffffffff168273ffffffffffffffffffffffffffffffffffffffff167f3997e418d2cef0b3b0e907b1e39605c3f7d32dbd061e82ea5b4a770d46a160a688888860405161280593929190614eae565b60405180910390a461281987878786612ba9565b6128268787878787612a16565b50505050505050565b600080600090505b6010600085815260200190815260200160002060040180549050811015612904578260106000868152602001908152602001600020600401828154811061288157612880614498565b5b906000526020600020906003020160020154036128f9576010600085815260200190815260200160002060040181815481106128c0576128bf614498565b5b906000526020600020906003020160010160009054906101000a900473ffffffffffffffffffffffffffffffffffffffff169150612904565b806001019050612837565b5092915050565b60007f01ffc9a7000000000000000000000000000000000000000000000000000000007bffffffffffffffffffffffffffffffffffffffffffffffffffffffff1916827bffffffffffffffffffffffffffffffffffffffffffffffffffffffff1916149050919050565b600073ffffffffffffffffffffffffffffffffffffffff168373ffffffffffffffffffffffffffffffffffffffff16036129c35780600360008282546129bb9190614572565b925050819055505b600073ffffffffffffffffffffffffffffffffffffffff168273ffffffffffffffffffffffffffffffffffffffff1603612a11578060036000828254612a09919061453e565b925050819055505b505050565b612a2784636bb56a1460e01b612c98565b15612b0357600085858584604051602001612a459493929190614fc8565b60405160208183030381529060405290508473ffffffffffffffffffffffffffffffffffffffff16636bb56a147fdbe2c314e1aee2970c72666f2ebe8933a8575263ea71e5ff6a9178e95d47a26f60001b836040518363ffffffff1660e01b8152600401612ab4929190615021565b6000604051808303816000875af1158015612ad3573d6000803e3d6000fd5b505050506040513d6000823e3d601f19601f82011682018060405250810190612afc91906150c1565b5050612ba2565b81612ba15760008473ffffffffffffffffffffffffffffffffffffffff163b14612b6457836040517fa608fbb6000000000000000000000000000000000000000000000000000000008152600401612b5b9190613cc4565b60405180910390fd5b836040517f26c247f4000000000000000000000000000000000000000000000000000000008152600401612b989190613cc4565b60405180910390fd5b5b5050505050565b612bba84636bb56a1460e01b612c98565b15612c9257600084848484604051602001612bd89493929190614fc8565b60405160208183030381529060405290508473ffffffffffffffffffffffffffffffffffffffff16636bb56a147f40b8bec57d7b5ff0dbd9e9acd0a47dfeb0101e1a203766f5ccab00445fbf39e960001b836040518363ffffffff1660e01b8152600401612c47929190615021565b6000604051808303816000875af1158015612c66573d6000803e3d6000fd5b505050506040513d6000823e3d601f19601f82011682018060405250810190612c8f91906150c1565b50505b50505050565b6000806301ffc9a760e01b83604051602401612cb49190615119565b604051602081830303815290604052907bffffffffffffffffffffffffffffffffffffffffffffffffffffffff19166020820180517bffffffffffffffffffffffffffffffffffffffffffffffffffffffff838183161783525050505090506000808573ffffffffffffffffffffffffffffffffffffffff1661753084604051612d3e9190615134565b6000604051808303818686fa925050503d8060008114612d7a576040519150601f19603f3d011682016040523d82523d6000602084013e612d7f565b606091505b5091509150602081511015612d9a5760009350505050612dbd565b818015612db7575080806020019051810190612db69190615160565b5b93505050505b92915050565b828054828255906000526020600020908101928215612dff579160200282015b82811115612dfe578251825591602001919060010190612de3565b5b509050612e0c919061306a565b5090565b828054828255906000526020600020908101928215612e515760005260206000209182015b82811115612e50578254825591600101919060010190612e35565b5b509050612e5e919061306a565b5090565b828054828255906000526020600020906003028101928215612f2f5760005260206000209160030282015b82811115612f2e57828260008201816000019081612eab9190614986565b506001820160009054906101000a900473ffffffffffffffffffffffffffffffffffffffff168160010160006101000a81548173ffffffffffffffffffffffffffffffffffffffff021916908373ffffffffffffffffffffffffffffffffffffffff16021790555060028201548160020155505091600301919060030190612e8d565b5b509050612f3c9190613087565b5090565b82805482825590600052602060002090600302810192821561300d5760005260206000209160030282015b8281111561300c57828260008201816000019081612f899190614986565b506001820160009054906101000a900473ffffffffffffffffffffffffffffffffffffffff168160010160006101000a81548173ffffffffffffffffffffffffffffffffffffffff021916908373ffffffffffffffffffffffffffffffffffffffff16021790555060028201548160020155505091600301919060030190612f6b565b5b50905061301a9190613087565b5090565b6040518060c001604052806060815260200160608152602001600073ffffffffffffffffffffffffffffffffffffffff1681526020016060815260200160608152602001600081525090565b5b8082111561308357600081600090555060010161306b565b5090565b5b808211156130d957600080820160006130a191906130dd565b6001820160006101000a81549073ffffffffffffffffffffffffffffffffffffffff0219169055600282016000905550600301613088565b5090565b5080546130e9906146b8565b6000825580601f106130fb575061311a565b601f016020900490600052602060002090810190613119919061306a565b5b50565b6000604051905090565b600080fd5b600080fd5b60007fffffffff0000000000000000000000000000000000000000000000000000000082169050919050565b61316681613131565b811461317157600080fd5b50565b6000813590506131838161315d565b92915050565b60006020828403121561319f5761319e613127565b5b60006131ad84828501613174565b91505092915050565b60008115159050919050565b6131cb816131b6565b82525050565b60006020820190506131e660008301846131c2565b92915050565b6000819050919050565b6131ff816131ec565b811461320a57600080fd5b50565b60008135905061321c816131f6565b92915050565b60006020828403121561323857613237613127565b5b60006132468482850161320d565b91505092915050565b600080fd5b6000601f19601f8301169050919050565b7f4e487b7100000000000000000000000000000000000000000000000000000000600052604160045260246000fd5b61329d82613254565b810181811067ffffffffffffffff821117156132bc576132bb613265565b5b80604052505050565b60006132cf61311d565b90506132db8282613294565b919050565b600067ffffffffffffffff8211156132fb576132fa613265565b5b602082029050602081019050919050565b600080fd5b6000819050919050565b61332481613311565b811461332f57600080fd5b50565b6000813590506133418161331b565b92915050565b600061335a613355846132e0565b6132c5565b9050808382526020820190506020840283018581111561337d5761337c61330c565b5b835b818110156133a657806133928882613332565b84526020840193505060208101905061337f565b5050509392505050565b600082601f8301126133c5576133c461324f565b5b81356133d5848260208601613347565b91505092915050565b600067ffffffffffffffff8211156133f9576133f8613265565b5b602082029050602081019050919050565b600080fd5b600067ffffffffffffffff82111561342a57613429613265565b5b61343382613254565b9050602081019050919050565b82818337600083830152505050565b600061346261345d8461340f565b6132c5565b90508281526020810184848401111561347e5761347d61340a565b5b613489848285613440565b509392505050565b600082601f8301126134a6576134a561324f565b5b81356134b684826020860161344f565b91505092915050565b60006134d26134cd846133de565b6132c5565b905080838252602082019050602084028301858111156134f5576134f461330c565b5b835b8181101561353c57803567ffffffffffffffff81111561351a5761351961324f565b5b8086016135278982613491565b855260208501945050506020810190506134f7565b5050509392505050565b600082601f83011261355b5761355a61324f565b5b813561356b8482602086016134bf565b91505092915050565b6000806040838503121561358b5761358a613127565b5b600083013567ffffffffffffffff8111156135a9576135a861312c565b5b6135b5858286016133b0565b925050602083013567ffffffffffffffff8111156135d6576135d561312c565b5b6135e285828601613546565b9150509250929050565b600081519050919050565b600082825260208201905092915050565b60005b8381101561362657808201518184015260208101905061360b565b83811115613635576000848401525b50505050565b6000613646826135ec565b61365081856135f7565b9350613660818560208601613608565b61366981613254565b840191505092915050565b600073ffffffffffffffffffffffffffffffffffffffff82169050919050565b600061369f82613674565b9050919050565b6136af81613694565b82525050565b6136be816131ec565b82525050565b600060808201905081810360008301526136de818761363b565b905081810360208301526136f2818661363b565b905061370160408301856136a6565b61370e60608301846136b5565b95945050505050565b600060208201905061372c60008301846136b5565b92915050565b600080fd5b60008083601f84011261374d5761374c61324f565b5b8235905067ffffffffffffffff81111561376a57613769613732565b5b6020830191508360018202830111156137865761378561330c565b5b9250929050565b600080600080604085870312156137a7576137a6613127565b5b600085013567ffffffffffffffff8111156137c5576137c461312c565b5b6137d187828801613737565b9450945050602085013567ffffffffffffffff8111156137f4576137f361312c565b5b61380087828801613737565b925092505092959194509250565b60008060006040848603121561382757613826613127565b5b60006138358682870161320d565b935050602084013567ffffffffffffffff8111156138565761385561312c565b5b61386286828701613737565b92509250509250925092565b61387781613694565b811461388257600080fd5b50565b6000813590506138948161386e565b92915050565b600080604083850312156138b1576138b0613127565b5b60006138bf85828601613885565b92505060206138d08582860161320d565b9150509250929050565b6000602082840312156138f0576138ef613127565b5b600082013567ffffffffffffffff81111561390e5761390d61312c565b5b61391a848285016133b0565b91505092915050565b600081519050919050565b600082825260208201905092915050565b6000819050602082019050919050565b600081519050919050565b600082825260208201905092915050565b60006139768261394f565b613980818561395a565b9350613990818560208601613608565b61399981613254565b840191505092915050565b60006139b0838361396b565b905092915050565b6000602082019050919050565b60006139d082613923565b6139da818561392e565b9350836020820285016139ec8561393f565b8060005b85811015613a285784840389528151613a0985826139a4565b9450613a14836139b8565b925060208a019950506001810190506139f0565b50829750879550505050505092915050565b60006020820190508181036000830152613a5481846139c5565b905092915050565b600060208284031215613a7257613a71613127565b5b6000613a8084828501613332565b91505092915050565b600082825260208201905092915050565b6000613aa58261394f565b613aaf8185613a89565b9350613abf818560208601613608565b613ac881613254565b840191505092915050565b60006020820190508181036000830152613aed8184613a9a565b905092915050565b600060208284031215613b0b57613b0a613127565b5b6000613b1984828501613885565b91505092915050565b613b2b816131b6565b8114613b3657600080fd5b50565b600081359050613b4881613b22565b92915050565b60008060008060808587031215613b6857613b67613127565b5b6000613b7687828801613885565b9450506020613b878782880161320d565b9350506040613b9887828801613b39565b925050606085013567ffffffffffffffff811115613bb957613bb861312c565b5b613bc587828801613491565b91505092959194509250565b600080600080600060a08688031215613bed57613bec613127565b5b6000613bfb88828901613885565b9550506020613c0c88828901613885565b9450506040613c1d8882890161320d565b9350506060613c2e88828901613b39565b925050608086013567ffffffffffffffff811115613c4f57613c4e61312c565b5b613c5b88828901613491565b9150509295509295909350565b60008060408385031215613c7f57613c7e613127565b5b6000613c8d85828601613332565b925050602083013567ffffffffffffffff811115613cae57613cad61312c565b5b613cba85828601613491565b9150509250929050565b6000602082019050613cd960008301846136a6565b92915050565b60008060408385031215613cf657613cf5613127565b5b6000613d048582860161320d565b9250506020613d158582860161320d565b9150509250929050565b600067ffffffffffffffff821115613d3a57613d39613265565b5b602082029050602081019050919050565b6000613d5e613d5984613d1f565b6132c5565b90508083825260208201905060208402830185811115613d8157613d8061330c565b5b835b81811015613daa5780613d968882613885565b845260208401935050602081019050613d83565b5050509392505050565b600082601f830112613dc957613dc861324f565b5b8135613dd9848260208601613d4b565b91505092915050565b600067ffffffffffffffff821115613dfd57613dfc613265565b5b602082029050602081019050919050565b6000613e21613e1c84613de2565b6132c5565b90508083825260208201905060208402830185811115613e4457613e4361330c565b5b835b81811015613e6d5780613e59888261320d565b845260208401935050602081019050613e46565b5050509392505050565b600082601f830112613e8c57613e8b61324f565b5b8135613e9c848260208601613e0e565b91505092915050565b600080600080600060a08688031215613ec157613ec0613127565b5b600086013567ffffffffffffffff811115613edf57613ede61312c565b5b613eeb88828901613db4565b955050602086013567ffffffffffffffff811115613f0c57613f0b61312c565b5b613f1888828901613db4565b945050604086013567ffffffffffffffff811115613f3957613f3861312c565b5b613f4588828901613e77565b9350506060613f5688828901613b39565b925050608086013567ffffffffffffffff811115613f7757613f7661312c565b5b613f8388828901613546565b9150509295509295909350565b600081519050919050565b600082825260208201905092915050565b6000819050602082019050919050565b600082825260208201905092915050565b6000613fd8826135ec565b613fe28185613fbc565b9350613ff2818560208601613608565b613ffb81613254565b840191505092915050565b61400f81613694565b82525050565b600081519050919050565b600082825260208201905092915050565b6000819050602082019050919050565b600061404d8383614006565b60208301905092915050565b6000602082019050919050565b600061407182614015565b61407b8185614020565b935061408683614031565b8060005b838110156140b757815161409e8882614041565b97506140a983614059565b92505060018101905061408a565b5085935050505092915050565b600081519050919050565b600082825260208201905092915050565b6000819050602082019050919050565b6140f9816131ec565b82525050565b6000606083016000830151848203600086015261411c8282613fcd565b91505060208301516141316020860182614006565b50604083015161414460408601826140f0565b508091505092915050565b600061415b83836140ff565b905092915050565b6000602082019050919050565b600061417b826140c4565b61418581856140cf565b935083602082028501614197856140e0565b8060005b858110156141d357848403895281516141b4858261414f565b94506141bf83614163565b925060208a0199505060018101905061419b565b50829750879550505050505092915050565b600060c08301600083015184820360008601526142028282613fcd565b9150506020830151848203602086015261421c8282613fcd565b91505060408301516142316040860182614006565b50606083015184820360608601526142498282614066565b915050608083015184820360808601526142638282614170565b91505060a083015161427860a08601826140f0565b508091505092915050565b600061428f83836141e5565b905092915050565b6000602082019050919050565b60006142af82613f90565b6142b98185613f9b565b9350836020820285016142cb85613fac565b8060005b8581101561430757848403895281516142e88582614283565b94506142f383614297565b925060208a019950506001810190506142cf565b50829750879550505050505092915050565b6000606082019050818103600083015261433381866142a4565b905061434260208301856136b5565b61434f60408301846136b5565b949350505050565b60008060008060006060868803121561437357614372613127565b5b60006143818882890161320d565b955050602086013567ffffffffffffffff8111156143a2576143a161312c565b5b6143ae88828901613737565b9450945050604086013567ffffffffffffffff8111156143d1576143d061312c565b5b6143dd88828901613737565b92509250509295509295909350565b6000806040838503121561440357614402613127565b5b600061441185828601613885565b925050602061442285828601613885565b9150509250929050565b7f617574686f72206f722061646d696e2063616e2064656c65746520706f737400600082015250565b6000614462601f836135f7565b915061446d8261442c565b602082019050919050565b6000602082019050818103600083015261449181614455565b9050919050565b7f4e487b7100000000000000000000000000000000000000000000000000000000600052603260045260246000fd5b7f4e487b7100000000000000000000000000000000000000000000000000000000600052601160045260246000fd5b6000614501826131ec565b91507fffffffffffffffffffffffffffffffffffffffffffffffffffffffffffffffff8203614533576145326144c7565b5b600182019050919050565b6000614549826131ec565b9150614554836131ec565b925082821015614567576145666144c7565b5b828203905092915050565b600061457d826131ec565b9150614588836131ec565b9250827fffffffffffffffffffffffffffffffffffffffffffffffffffffffffffffffff038211156145bd576145bc6144c7565b5b828201905092915050565b7f4e487b7100000000000000000000000000000000000000000000000000000000600052603160045260246000fd5b7f4b657973206c656e677468206e6f7420657175616c20746f2076616c7565732060008201527f6c656e6774680000000000000000000000000000000000000000000000000000602082015250565b60006146536026836135f7565b915061465e826145f7565b604082019050919050565b6000602082019050818103600083015261468281614646565b9050919050565b7f4e487b7100000000000000000000000000000000000000000000000000000000600052602260045260246000fd5b600060028204905060018216806146d057607f821691505b6020821081036146e3576146e2614689565b5b50919050565b600082905092915050565b60008190508160005260206000209050919050565b60006020601f8301049050919050565b600082821b905092915050565b6000600883026147567fffffffffffffffffffffffffffffffffffffffffffffffffffffffffffffffff82614719565b6147608683614719565b95508019841693508086168417925050509392505050565b6000819050919050565b600061479d614798614793846131ec565b614778565b6131ec565b9050919050565b6000819050919050565b6147b783614782565b6147cb6147c3826147a4565b848454614726565b825550505050565b600090565b6147e06147d3565b6147eb8184846147ae565b505050565b5b8181101561480f576148046000826147d8565b6001810190506147f1565b5050565b601f82111561485457614825816146f4565b61482e84614709565b8101602085101561483d578190505b61485161484985614709565b8301826147f0565b50505b505050565b600082821c905092915050565b600061487760001984600802614859565b1980831691505092915050565b60006148908383614866565b9150826002028217905092915050565b6148aa83836146e9565b67ffffffffffffffff8111156148c3576148c2613265565b5b6148cd82546146b8565b6148d8828285614813565b6000601f83116001811461490757600084156148f5578287013590505b6148ff8582614884565b865550614967565b601f198416614915866146f4565b60005b8281101561493d57848901358255600182019150602085019450602081019050614918565b8683101561495a5784890135614956601f891682614866565b8355505b6001600288020188555050505b50505050505050565b60008154905061497f816146b8565b9050919050565b818103614994575050614a6c565b61499d82614970565b67ffffffffffffffff8111156149b6576149b5613265565b5b6149c082546146b8565b6149cb828285614813565b6000601f8311600181146149fa57600084156149e8578287015490505b6149f28582614884565b865550614a65565b601f198416614a08876146f4565b9650614a13866146f4565b60005b82811015614a3b57848901548255600182019150600185019450602081019050614a16565b86831015614a585784890154614a54601f891682614866565b8355505b6001600288020188555050505b5050505050505b565b614a77826135ec565b67ffffffffffffffff811115614a9057614a8f613265565b5b614a9a82546146b8565b614aa5828285614813565b600060209050601f831160018114614ad85760008415614ac6578287015190505b614ad08582614884565b865550614b38565b601f198416614ae6866146f4565b60005b82811015614b0e57848901518255600182019150602085019450602081019050614ae9565b86831015614b2b5784890151614b27601f891682614866565b8355505b6001600288020188555050505b505050505050565b6000608082019050614b5560008301876136a6565b614b6260208301866136b5565b614b6f60408301856136a6565b614b7c60608301846136b5565b95945050505050565b7f4f6e6c7920706f737420617574686f72206f7220636f6d6d656e746f7220636160008201527f6e2072656d6f766520636f6d6d656e7400000000000000000000000000000000602082015250565b6000614be16030836135f7565b9150614bec82614b85565b604082019050919050565b60006020820190508181036000830152614c1081614bd4565b9050919050565b7f4f6e6c7920617574686f722063616e206564697420706f737400000000000000600082015250565b6000614c4d6019836135f7565b9150614c5882614c17565b602082019050919050565b60006020820190508181036000830152614c7c81614c40565b9050919050565b7f4f776e61626c653a206e6577206f776e657220697320746865207a65726f206160008201527f6464726573730000000000000000000000000000000000000000000000000000602082015250565b6000614cdf6026836135f7565b9150614cea82614c83565b604082019050919050565b60006020820190508181036000830152614d0e81614cd2565b9050919050565b60008190508160005260206000209050919050565b601f821115614d6b57614d3c81614d15565b614d4584614709565b81016020851015614d54578190505b614d68614d6085614709565b8301826147f0565b50505b505050565b614d798261394f565b67ffffffffffffffff811115614d9257614d91613265565b5b614d9c82546146b8565b614da7828285614d2a565b600060209050601f831160018114614dda5760008415614dc8578287015190505b614dd28582614884565b865550614e3a565b601f198416614de886614d15565b60005b82811015614e1057848901518255600182019150602085019450602081019050614deb565b86831015614e2d5784890151614e29601f891682614866565b8355505b6001600288020188555050505b505050505050565b7f4f776e61626c653a2063616c6c6572206973206e6f7420746865206f776e6572600082015250565b6000614e786020836135f7565b9150614e8382614e42565b602082019050919050565b60006020820190508181036000830152614ea781614e6b565b9050919050565b6000606082019050614ec360008301866136b5565b614ed060208301856131c2565b8181036040830152614ee28184613a9a565b9050949350505050565b6000606082019050614f0160008301866136b5565b614f0e60208301856136a6565b614f1b60408301846136b5565b949350505050565b60008160601b9050919050565b6000614f3b82614f23565b9050919050565b6000614f4d82614f30565b9050919050565b614f65614f6082613694565b614f42565b82525050565b6000819050919050565b614f86614f81826131ec565b614f6b565b82525050565b600081905092915050565b6000614fa28261394f565b614fac8185614f8c565b9350614fbc818560208601613608565b80840191505092915050565b6000614fd48287614f54565b601482019150614fe48286614f54565b601482019150614ff48285614f75565b6020820191506150048284614f97565b915081905095945050505050565b61501b81613311565b82525050565b60006040820190506150366000830185615012565b81810360208301526150488184613a9a565b90509392505050565b600061506461505f8461340f565b6132c5565b9050828152602081018484840111156150805761507f61340a565b5b61508b848285613608565b509392505050565b600082601f8301126150a8576150a761324f565b5b81516150b8848260208601615051565b91505092915050565b6000602082840312156150d7576150d6613127565b5b600082015167ffffffffffffffff8111156150f5576150f461312c565b5b61510184828501615093565b91505092915050565b61511381613131565b82525050565b600060208201905061512e600083018461510a565b92915050565b60006151408284614f97565b915081905092915050565b60008151905061515a81613b22565b92915050565b60006020828403121561517657615175613127565b5b60006151848482850161514b565b9150509291505056fea2646970667358221220967af2e7ed70fada4b7e83762d421e646a5d9a39af6aec299d0a7eff6748b06564736f6c634300080f0033",
  "linkReferences": {},
  "deployedLinkReferences": {}
}