{
  "_format": "hh-sol-artifact-1",
  "contractName": "ForumNFT",
  "sourceName": "contracts/ForumNFT.sol",
  "abi": [
    {
      "inputs": [
        {
          "internalType": "string",
          "name": "_name",
          "type": "string"
        },
        {
          "internalType": "string",
          "name": "_symbol",
          "type": "string"
        },
        {
          "internalType": "address",
          "name": "_newOwner",
          "type": "address"
        },
        {
          "internalType": "bool",
          "name": "_isNFT",
          "type": "bool"
        }
      ],
      "stateMutability": "nonpayable",
      "type": "constructor"
    },
    {
      "inputs": [],
      "name": "LSP4TokenNameNotEditable",
      "type": "error"
    },
    {
      "inputs": [],
      "name": "LSP4TokenSymbolNotEditable",
      "type": "error"
    },
    {
      "inputs": [
        {
          "internalType": "address",
          "name": "tokenOwner",
          "type": "address"
        },
        {
          "internalType": "uint256",
          "name": "authorizedAmount",
          "type": "uint256"
        },
        {
          "internalType": "address",
          "name": "operator",
          "type": "address"
        },
        {
          "internalType": "uint256",
          "name": "amount",
          "type": "uint256"
        }
      ],
      "name": "LSP7AmountExceedsAuthorizedAmount",
      "type": "error"
    },
    {
      "inputs": [
        {
          "internalType": "uint256",
          "name": "balance",
          "type": "uint256"
        },
        {
          "internalType": "address",
          "name": "tokenOwner",
          "type": "address"
        },
        {
          "internalType": "uint256",
          "name": "amount",
          "type": "uint256"
        }
      ],
      "name": "LSP7AmountExceedsBalance",
      "type": "error"
    },
    {
      "inputs": [],
      "name": "LSP7CannotSendWithAddressZero",
      "type": "error"
    },
    {
      "inputs": [],
      "name": "LSP7CannotUseAddressZeroAsOperator",
      "type": "error"
    },
    {
      "inputs": [],
      "name": "LSP7InvalidTransferBatch",
      "type": "error"
    },
    {
      "inputs": [
        {
          "internalType": "address",
          "name": "tokenReceiver",
          "type": "address"
        }
      ],
      "name": "LSP7NotifyTokenReceiverContractMissingLSP1Interface",
      "type": "error"
    },
    {
      "inputs": [
        {
          "internalType": "address",
          "name": "tokenReceiver",
          "type": "address"
        }
      ],
      "name": "LSP7NotifyTokenReceiverIsEOA",
      "type": "error"
    },
    {
      "anonymous": false,
      "inputs": [
        {
          "indexed": true,
          "internalType": "address",
          "name": "operator",
          "type": "address"
        },
        {
          "indexed": true,
          "internalType": "address",
          "name": "tokenOwner",
          "type": "address"
        },
        {
          "indexed": true,
          "internalType": "uint256",
          "name": "amount",
          "type": "uint256"
        }
      ],
      "name": "AuthorizedOperator",
      "type": "event"
    },
    {
      "anonymous": false,
      "inputs": [
        {
          "indexed": true,
          "internalType": "bytes32",
          "name": "dataKey",
          "type": "bytes32"
        }
      ],
      "name": "DataChanged",
      "type": "event"
    },
    {
      "anonymous": false,
      "inputs": [
        {
          "indexed": true,
          "internalType": "address",
          "name": "previousOwner",
          "type": "address"
        },
        {
          "indexed": true,
          "internalType": "address",
          "name": "newOwner",
          "type": "address"
        }
      ],
      "name": "OwnershipTransferred",
      "type": "event"
    },
    {
      "anonymous": false,
      "inputs": [
        {
          "indexed": true,
          "internalType": "address",
          "name": "operator",
          "type": "address"
        },
        {
          "indexed": true,
          "internalType": "address",
          "name": "tokenOwner",
          "type": "address"
        }
      ],
      "name": "RevokedOperator",
      "type": "event"
    },
    {
      "anonymous": false,
      "inputs": [
        {
          "indexed": true,
          "internalType": "address",
          "name": "operator",
          "type": "address"
        },
        {
          "indexed": true,
          "internalType": "address",
          "name": "from",
          "type": "address"
        },
        {
          "indexed": true,
          "internalType": "address",
          "name": "to",
          "type": "address"
        },
        {
          "indexed": false,
          "internalType": "uint256",
          "name": "amount",
          "type": "uint256"
        },
        {
          "indexed": false,
          "internalType": "bool",
          "name": "force",
          "type": "bool"
        },
        {
          "indexed": false,
          "internalType": "bytes",
          "name": "data",
          "type": "bytes"
        }
      ],
      "name": "Transfer",
      "type": "event"
    },
    {
      "inputs": [
        {
          "internalType": "address",
          "name": "operator",
          "type": "address"
        },
        {
          "internalType": "uint256",
          "name": "amount",
          "type": "uint256"
        }
      ],
      "name": "authorizeOperator",
      "outputs": [],
      "stateMutability": "nonpayable",
      "type": "function"
    },
    {
      "inputs": [
        {
          "internalType": "address",
          "name": "tokenOwner",
          "type": "address"
        }
      ],
      "name": "balanceOf",
      "outputs": [
        {
          "internalType": "uint256",
          "name": "",
          "type": "uint256"
        }
      ],
      "stateMutability": "view",
      "type": "function"
    },
    {
      "inputs": [
        {
          "internalType": "address",
          "name": "_newAdmin",
          "type": "address"
        }
      ],
      "name": "changeAdmin",
      "outputs": [],
      "stateMutability": "nonpayable",
      "type": "function"
    },
    {
      "inputs": [
        {
          "internalType": "uint256",
          "name": "_tokenId",
          "type": "uint256"
        },
        {
          "internalType": "string",
          "name": "_cid",
          "type": "string"
        }
      ],
      "name": "createComment",
      "outputs": [],
      "stateMutability": "nonpayable",
      "type": "function"
    },
    {
      "inputs": [
        {
          "internalType": "string",
          "name": "_cid",
          "type": "string"
        }
      ],
      "name": "createPost",
      "outputs": [],
      "stateMutability": "nonpayable",
      "type": "function"
    },
    {
      "inputs": [],
      "name": "decimals",
      "outputs": [
        {
          "internalType": "uint256",
          "name": "",
          "type": "uint256"
        }
      ],
      "stateMutability": "view",
      "type": "function"
    },
    {
      "inputs": [
        {
          "internalType": "uint256",
          "name": "_tokenId",
          "type": "uint256"
        }
      ],
      "name": "deletePost",
      "outputs": [],
      "stateMutability": "nonpayable",
      "type": "function"
    },
    {
      "inputs": [
        {
          "internalType": "uint256",
          "name": "_tokenId",
          "type": "uint256"
        },
        {
          "internalType": "string",
          "name": "_cid",
          "type": "string"
        }
      ],
      "name": "editPost",
      "outputs": [],
      "stateMutability": "nonpayable",
      "type": "function"
    },
    {
      "inputs": [
        {
          "internalType": "uint256",
          "name": "_tokenId",
          "type": "uint256"
        }
      ],
      "name": "fetchComments",
      "outputs": [
        {
          "components": [
            {
              "internalType": "string",
              "name": "cid",
              "type": "string"
            },
            {
              "internalType": "address",
              "name": "commentor",
              "type": "address"
            },
            {
              "internalType": "uint256",
              "name": "id",
              "type": "uint256"
            }
          ],
          "internalType": "struct ForumNFT.Comment[]",
          "name": "comments",
          "type": "tuple[]"
        }
      ],
      "stateMutability": "view",
      "type": "function"
    },
    {
      "inputs": [
        {
          "internalType": "uint256",
          "name": "_tokenId",
          "type": "uint256"
        }
      ],
      "name": "fetchLikes",
      "outputs": [
        {
          "internalType": "address[]",
          "name": "likes",
          "type": "address[]"
        }
      ],
      "stateMutability": "view",
      "type": "function"
    },
    {
      "inputs": [],
      "name": "fetchPosts",
      "outputs": [
        {
          "components": [
            {
              "internalType": "string",
              "name": "cid",
              "type": "string"
            },
            {
              "internalType": "address",
              "name": "author",
              "type": "address"
            },
            {
              "internalType": "address[]",
              "name": "likes",
              "type": "address[]"
            },
            {
              "components": [
                {
                  "internalType": "string",
                  "name": "cid",
                  "type": "string"
                },
                {
                  "internalType": "address",
                  "name": "commentor",
                  "type": "address"
                },
                {
                  "internalType": "uint256",
                  "name": "id",
                  "type": "uint256"
                }
              ],
              "internalType": "struct ForumNFT.Comment[]",
              "name": "comments",
              "type": "tuple[]"
            },
            {
              "internalType": "uint256",
              "name": "id",
              "type": "uint256"
            }
          ],
          "internalType": "struct ForumNFT.Post[]",
          "name": "posts",
          "type": "tuple[]"
        },
        {
          "internalType": "uint256",
          "name": "",
          "type": "uint256"
        },
        {
          "internalType": "uint256",
          "name": "",
          "type": "uint256"
        }
      ],
      "stateMutability": "view",
      "type": "function"
    },
    {
      "inputs": [
        {
          "internalType": "bytes32[]",
          "name": "dataKeys",
          "type": "bytes32[]"
        }
      ],
      "name": "getData",
      "outputs": [
        {
          "internalType": "bytes[]",
          "name": "dataValues",
          "type": "bytes[]"
        }
      ],
      "stateMutability": "view",
      "type": "function"
    },
    {
      "inputs": [
        {
          "internalType": "bytes32",
          "name": "dataKey",
          "type": "bytes32"
        }
      ],
      "name": "getData",
      "outputs": [
        {
          "internalType": "bytes",
          "name": "dataValue",
          "type": "bytes"
        }
      ],
      "stateMutability": "view",
      "type": "function"
    },
    {
      "inputs": [
        {
          "internalType": "address",
          "name": "operator",
          "type": "address"
        },
        {
          "internalType": "address",
          "name": "tokenOwner",
          "type": "address"
        }
      ],
      "name": "isOperatorFor",
      "outputs": [
        {
          "internalType": "uint256",
          "name": "",
          "type": "uint256"
        }
      ],
      "stateMutability": "view",
      "type": "function"
    },
    {
      "inputs": [
        {
          "internalType": "uint256",
          "name": "_tokenId",
          "type": "uint256"
        }
      ],
      "name": "like",
      "outputs": [],
      "stateMutability": "nonpayable",
      "type": "function"
    },
    {
      "inputs": [],
      "name": "owner",
      "outputs": [
        {
          "internalType": "address",
          "name": "",
          "type": "address"
        }
      ],
      "stateMutability": "view",
      "type": "function"
    },
    {
      "inputs": [
        {
          "internalType": "uint256",
          "name": "",
          "type": "uint256"
        }
      ],
      "name": "postByTokenId",
      "outputs": [
        {
          "internalType": "string",
          "name": "cid",
          "type": "string"
        },
        {
          "internalType": "address",
          "name": "author",
          "type": "address"
        },
        {
          "internalType": "uint256",
          "name": "id",
          "type": "uint256"
        }
      ],
      "stateMutability": "view",
      "type": "function"
    },
    {
      "inputs": [
        {
          "internalType": "uint256",
          "name": "",
          "type": "uint256"
        }
      ],
      "name": "postsIds",
      "outputs": [
        {
          "internalType": "uint256",
          "name": "",
          "type": "uint256"
        }
      ],
      "stateMutability": "view",
      "type": "function"
    },
    {
      "inputs": [
        {
          "internalType": "uint256",
          "name": "_tokenId",
          "type": "uint256"
        },
        {
          "internalType": "uint256",
          "name": "_commentId",
          "type": "uint256"
        }
      ],
      "name": "removeComment",
      "outputs": [],
      "stateMutability": "nonpayable",
      "type": "function"
    },
    {
      "inputs": [],
      "name": "renounceOwnership",
      "outputs": [],
      "stateMutability": "nonpayable",
      "type": "function"
    },
    {
      "inputs": [
        {
          "internalType": "address",
          "name": "operator",
          "type": "address"
        }
      ],
      "name": "revokeOperator",
      "outputs": [],
      "stateMutability": "nonpayable",
      "type": "function"
    },
    {
      "inputs": [
        {
          "internalType": "bytes32[]",
          "name": "dataKeys",
          "type": "bytes32[]"
        },
        {
          "internalType": "bytes[]",
          "name": "dataValues",
          "type": "bytes[]"
        }
      ],
      "name": "setData",
      "outputs": [],
      "stateMutability": "nonpayable",
      "type": "function"
    },
    {
      "inputs": [
        {
          "internalType": "bytes32",
          "name": "dataKey",
          "type": "bytes32"
        },
        {
          "internalType": "bytes",
          "name": "dataValue",
          "type": "bytes"
        }
      ],
      "name": "setData",
      "outputs": [],
      "stateMutability": "nonpayable",
      "type": "function"
    },
    {
      "inputs": [
        {
          "internalType": "bytes4",
          "name": "interfaceId",
          "type": "bytes4"
        }
      ],
      "name": "supportsInterface",
      "outputs": [
        {
          "internalType": "bool",
          "name": "",
          "type": "bool"
        }
      ],
      "stateMutability": "view",
      "type": "function"
    },
    {
      "inputs": [],
      "name": "totalSupply",
      "outputs": [
        {
          "internalType": "uint256",
          "name": "",
          "type": "uint256"
        }
      ],
      "stateMutability": "view",
      "type": "function"
    },
    {
      "inputs": [
        {
          "internalType": "address",
          "name": "from",
          "type": "address"
        },
        {
          "internalType": "address",
          "name": "to",
          "type": "address"
        },
        {
          "internalType": "uint256",
          "name": "amount",
          "type": "uint256"
        },
        {
          "internalType": "bool",
          "name": "force",
          "type": "bool"
        },
        {
          "internalType": "bytes",
          "name": "data",
          "type": "bytes"
        }
      ],
      "name": "transfer",
      "outputs": [],
      "stateMutability": "nonpayable",
      "type": "function"
    },
    {
      "inputs": [
        {
          "internalType": "address[]",
          "name": "from",
          "type": "address[]"
        },
        {
          "internalType": "address[]",
          "name": "to",
          "type": "address[]"
        },
        {
          "internalType": "uint256[]",
          "name": "amount",
          "type": "uint256[]"
        },
        {
          "internalType": "bool",
          "name": "force",
          "type": "bool"
        },
        {
          "internalType": "bytes[]",
          "name": "data",
          "type": "bytes[]"
        }
      ],
      "name": "transferBatch",
      "outputs": [],
      "stateMutability": "nonpayable",
      "type": "function"
    },
    {
      "inputs": [
        {
          "internalType": "address",
          "name": "newOwner",
          "type": "address"
        }
      ],
      "name": "transferOwnership",
      "outputs": [],
      "stateMutability": "nonpayable",
      "type": "function"
    }
  ],
  "bytecode": "0x60806040523480156200001157600080fd5b5060405162005eef38038062005eef833981810160405281019062000037919062000569565b83838383838383806200005581620001a560201b620021af1760201c565b50620000c57feafec4d89fa9619884b60000a4d96624a38f7ac2d8d9a604ecf07c12c77e480c60001b6040518060400160405280600481526020017fa4d9662400000000000000000000000000000000000000000000000000000000815250620002ad60201b620022ae1760201c565b620000ff7fdeba1e292f8ba88238e10ab3c7f88bd4be4fac56cad5194b6ecceaf653468af160001b84620002ad60201b620022ae1760201c565b620001397f2f0a68ab07768e01943a599e73362a0e17a63a72e94dd2e384d2c1d4db93275660001b83620002ad60201b620022ae1760201c565b50505080600260006101000a81548160ff0219169083151502179055505050505033601260006101000a81548173ffffffffffffffffffffffffffffffffffffffff021916908373ffffffffffffffffffffffffffffffffffffffff160217905550505050506200094b565b620001b56200030160201b60201c565b73ffffffffffffffffffffffffffffffffffffffff168173ffffffffffffffffffffffffffffffffffffffff1614620002aa5760008060009054906101000a900473ffffffffffffffffffffffffffffffffffffffff169050816000806101000a81548173ffffffffffffffffffffffffffffffffffffffff021916908373ffffffffffffffffffffffffffffffffffffffff1602179055508173ffffffffffffffffffffffffffffffffffffffff168173ffffffffffffffffffffffffffffffffffffffff167f8be0079c531659141344cd1fd0a4f28419497f9722a3daafe3b4186f6b6457e060405160405180910390a3505b50565b80600160008481526020019081526020016000209081620002cf919062000864565b50817fcdf4e344c0d23d4cdd0474039d176c55b19d531070dbe17856bfb993a5b5720b60405160405180910390a25050565b60008060009054906101000a900473ffffffffffffffffffffffffffffffffffffffff16905090565b6000604051905090565b600080fd5b600080fd5b600080fd5b600080fd5b6000601f19601f8301169050919050565b7f4e487b7100000000000000000000000000000000000000000000000000000000600052604160045260246000fd5b620003938262000348565b810181811067ffffffffffffffff82111715620003b557620003b462000359565b5b80604052505050565b6000620003ca6200032a565b9050620003d8828262000388565b919050565b600067ffffffffffffffff821115620003fb57620003fa62000359565b5b620004068262000348565b9050602081019050919050565b60005b838110156200043357808201518184015260208101905062000416565b8381111562000443576000848401525b50505050565b6000620004606200045a84620003dd565b620003be565b9050828152602081018484840111156200047f576200047e62000343565b5b6200048c84828562000413565b509392505050565b600082601f830112620004ac57620004ab6200033e565b5b8151620004be84826020860162000449565b91505092915050565b600073ffffffffffffffffffffffffffffffffffffffff82169050919050565b6000620004f482620004c7565b9050919050565b6200050681620004e7565b81146200051257600080fd5b50565b6000815190506200052681620004fb565b92915050565b60008115159050919050565b62000543816200052c565b81146200054f57600080fd5b50565b600081519050620005638162000538565b92915050565b6000806000806080858703121562000586576200058562000334565b5b600085015167ffffffffffffffff811115620005a757620005a662000339565b5b620005b58782880162000494565b945050602085015167ffffffffffffffff811115620005d957620005d862000339565b5b620005e78782880162000494565b9350506040620005fa8782880162000515565b92505060606200060d8782880162000552565b91505092959194509250565b600081519050919050565b7f4e487b7100000000000000000000000000000000000000000000000000000000600052602260045260246000fd5b600060028204905060018216806200066c57607f821691505b60208210810362000682576200068162000624565b5b50919050565b60008190508160005260206000209050919050565b60006020601f8301049050919050565b600082821b905092915050565b600060088302620006ec7fffffffffffffffffffffffffffffffffffffffffffffffffffffffffffffffff82620006ad565b620006f88683620006ad565b95508019841693508086168417925050509392505050565b6000819050919050565b6000819050919050565b6000620007456200073f620007398462000710565b6200071a565b62000710565b9050919050565b6000819050919050565b620007618362000724565b6200077962000770826200074c565b848454620006ba565b825550505050565b600090565b6200079062000781565b6200079d81848462000756565b505050565b5b81811015620007c557620007b960008262000786565b600181019050620007a3565b5050565b601f8211156200081457620007de8162000688565b620007e9846200069d565b81016020851015620007f9578190505b6200081162000808856200069d565b830182620007a2565b50505b505050565b600082821c905092915050565b6000620008396000198460080262000819565b1980831691505092915050565b600062000854838362000826565b9150826002028217905092915050565b6200086f8262000619565b67ffffffffffffffff8111156200088b576200088a62000359565b5b62000897825462000653565b620008a4828285620007c9565b600060209050601f831160018114620008dc5760008415620008c7578287015190505b620008d3858262000846565b86555062000943565b601f198416620008ec8662000688565b60005b828110156200091657848901518255600182019150602085019450602081019050620008ef565b8683101562000936578489015162000932601f89168262000826565b8355505b6001600288020188555050505b505050505050565b615594806200095b6000396000f3fe608060405234801561001057600080fd5b50600436106101c45760003560e01c8063760d9bba116100f9578063abe48cc911610097578063e82935da11610071578063e82935da14610517578063f2fde38b14610533578063fa99654a1461054f578063fad8b32a1461056b576101c4565b8063abe48cc91461049b578063c7303c61146104cb578063d95b6371146104e7576101c4565b80638f283970116100d35780638f28397014610427578063a71eb6a114610443578063a8a34e0a1461045f578063abaddd7f1461047b576101c4565b8063760d9bba146103d15780637f23690c146103ed5780638da5cb5b14610409576101c4565b806340a17985116101665780635053380c116101405780635053380c1461033757806354f6127f1461036757806370a0823114610397578063715018a6146103c7576101c4565b806340a17985146102cf57806347980aa3146102eb5780634e3e6e9c14610307576101c4565b806316ebbe04116101a257806316ebbe041461023157806318160ddd146102635780631c77a3a714610281578063313ce567146102b1576101c4565b806301ffc9a7146101c9578063094cd5ee146101f957806314a6e29314610215575b600080fd5b6101e360048036038101906101de919061359c565b610587565b6040516101f091906135e4565b60405180910390f35b610213600480360381019061020e9190613635565b6105e8565b005b61022f600480360381019061022a9190613987565b610835565b005b61024b60048036038101906102469190613635565b6108e0565b60405161025a93929190613ad7565b60405180910390f35b61026b6109b2565b6040516102789190613b15565b60405180910390f35b61029b60048036038101906102969190613635565b6109bc565b6040516102a89190613caa565b60405180910390f35b6102b9610beb565b6040516102c69190613b15565b60405180910390f35b6102e960048036038101906102e49190613d27565b610c13565b005b61030560048036038101906103009190613db3565b610d4f565b005b610321600480360381019061031c9190613df3565b610d65565b60405161032e9190613f53565b60405180910390f35b610351600480360381019061034c9190613635565b610e1b565b60405161035e9190614024565b60405180910390f35b610381600480360381019061037c9190614046565b610ebf565b60405161038e91906140bd565b60405180910390f35b6103b160048036038101906103ac91906140df565b610ed1565b6040516103be9190613b15565b60405180910390f35b6103cf610f1a565b005b6103eb60048036038101906103e69190614138565b610f2e565b005b610407600480360381019061040291906141cf565b611066565b005b61041161107c565b60405161041e919061422b565b60405180910390f35b610441600480360381019061043c91906140df565b6110a5565b005b61045d60048036038101906104589190614246565b611143565b005b6104796004803603810190610474919061440c565b611581565b005b610483611674565b60405161049293929190614732565b60405180910390f35b6104b560048036038101906104b09190613635565b611a80565b6040516104c29190613b15565b60405180910390f35b6104e560048036038101906104e09190614770565b611aa4565b005b61050160048036038101906104fc91906147bd565b611c4c565b60405161050e9190613b15565b60405180910390f35b610531600480360381019061052c9190613635565b611d4e565b005b61054d600480360381019061054891906140df565b612047565b005b61056960048036038101906105649190613d27565b6120ca565b005b610585600480360381019061058091906140df565b612199565b005b600063e33f65c360e01b7bffffffffffffffffffffffffffffffffffffffffffffffffffffffff1916827bffffffffffffffffffffffffffffffffffffffffffffffffffffffff191614806105e157506105e082612300565b5b9050919050565b3373ffffffffffffffffffffffffffffffffffffffff16600f600083815260200190815260200160002060010160009054906101000a900473ffffffffffffffffffffffffffffffffffffffff1673ffffffffffffffffffffffffffffffffffffffff1614806106a557503373ffffffffffffffffffffffffffffffffffffffff16601260009054906101000a900473ffffffffffffffffffffffffffffffffffffffff1673ffffffffffffffffffffffffffffffffffffffff16145b6106e4576040517f08c379a00000000000000000000000000000000000000000000000000000000081526004016106db90614849565b60405180910390fd5b6000600e80548060200260200160405190810160405280929190818152602001828054801561073257602002820191906000526020600020905b81548152602001906001019080831161071e575b50505050509050600081519050600080600090505b82811015610783578484828151811061076357610762614869565b5b60200260200101510361077857809150610783565b806001019050610747565b5060008190505b60018361079791906148c7565b8110156107ef57836001826107ac91906148fb565b815181106107bd576107bc614869565b5b60200260200101518482815181106107d8576107d7614869565b5b60200260200101818152505080600101905061078a565b5082600e90805190602001906108069291906130ca565b50600e80548061081957610818614951565b5b6001900381819060005260206000200160009055905550505050565b61083d612361565b8051825114610881576040517f08c379a0000000000000000000000000000000000000000000000000000000008152600401610878906149f2565b60405180910390fd5b60005b82518110156108db576108cb8382815181106108a3576108a2614869565b5b60200260200101518383815181106108be576108bd614869565b5b60200260200101516123d8565b6108d48161249e565b9050610884565b505050565b600f60205280600052604060002060009150905080600001805461090390614a41565b80601f016020809104026020016040519081016040528092919081815260200182805461092f90614a41565b801561097c5780601f106109515761010080835404028352916020019161097c565b820191906000526020600020905b81548152906001019060200180831161095f57829003601f168201915b5050505050908060010160009054906101000a900473ffffffffffffffffffffffffffffffffffffffff16908060040154905083565b6000600354905090565b60606000600f60008481526020019081526020016000206003018054905090506000600f6000858152602001908152602001600020600301805480602002602001604051908101604052809291908181526020016000905b82821015610b385783829060005260206000209060030201604051806060016040529081600082018054610a4790614a41565b80601f0160208091040260200160405190810160405280929190818152602001828054610a7390614a41565b8015610ac05780601f10610a9557610100808354040283529160200191610ac0565b820191906000526020600020905b815481529060010190602001808311610aa357829003601f168201915b505050505081526020016001820160009054906101000a900473ffffffffffffffffffffffffffffffffffffffff1673ffffffffffffffffffffffffffffffffffffffff1673ffffffffffffffffffffffffffffffffffffffff16815260200160028201548152505081526020019060010190610a14565b5050505090508167ffffffffffffffff811115610b5857610b57613678565b5b604051908082528060200260200182016040528015610b9157816020015b610b7e613117565b815260200190600190039081610b765790505b50925060005b82811015610be357818181518110610bb257610bb1614869565b5b6020026020010151848281518110610bcd57610bcc614869565b5b6020026020010181905250806001019050610b97565b505050919050565b6000600260009054906101000a900460ff16610c08576012610c0b565b60005b60ff16905090565b6000604051806060016040528084848080601f016020809104026020016040519081016040528093929190818152602001838380828437600081840152601f19601f8201169050808301925050505050505081526020013373ffffffffffffffffffffffffffffffffffffffff168152602001601160008154610c9590614a72565b9190508190558152509050600f60008581526020019081526020016000206003018190806001815401808255809150506001900390600052602060002090600302016000909190919091506000820151816000019081610cf59190614c66565b5060208201518160010160006101000a81548173ffffffffffffffffffffffffffffffffffffffff021916908373ffffffffffffffffffffffffffffffffffffffff16021790555060408201518160020155505050505050565b610d61610d5a6124ab565b83836124b3565b5050565b6060815167ffffffffffffffff811115610d8257610d81613678565b5b604051908082528060200260200182016040528015610db557816020015b6060815260200190600190039081610da05790505b50905060005b8251811015610e1557610de7838281518110610dda57610dd9614869565b5b6020026020010151612697565b828281518110610dfa57610df9614869565b5b6020026020010181905250610e0e8161249e565b9050610dbb565b50919050565b6060600f6000838152602001908152602001600020600201805480602002602001604051908101604052809291908181526020018280548015610eb357602002820191906000526020600020905b8160009054906101000a900473ffffffffffffffffffffffffffffffffffffffff1673ffffffffffffffffffffffffffffffffffffffff1681526020019060010190808311610e69575b50505050509050919050565b6060610eca82612697565b9050919050565b6000600460008373ffffffffffffffffffffffffffffffffffffffff1673ffffffffffffffffffffffffffffffffffffffff168152602001908152602001600020549050919050565b610f22612361565b610f2c60006121af565b565b6000610f386124ab565b90508573ffffffffffffffffffffffffffffffffffffffff168173ffffffffffffffffffffffffffffffffffffffff1614611051576000600560008873ffffffffffffffffffffffffffffffffffffffff1673ffffffffffffffffffffffffffffffffffffffff16815260200190815260200160002060008373ffffffffffffffffffffffffffffffffffffffff1673ffffffffffffffffffffffffffffffffffffffff1681526020019081526020016000205490508085111561103957868183876040517ff3a6b6910000000000000000000000000000000000000000000000000000000081526004016110309493929190614d38565b60405180910390fd5b61104f8783878461104a91906148c7565b6124b3565b505b61105e868686868661273c565b505050505050565b61106e612361565b61107882826123d8565b5050565b60008060009054906101000a900473ffffffffffffffffffffffffffffffffffffffff16905090565b601260009054906101000a900473ffffffffffffffffffffffffffffffffffffffff1673ffffffffffffffffffffffffffffffffffffffff163373ffffffffffffffffffffffffffffffffffffffff16146110ff57600080fd5b80601260006101000a81548173ffffffffffffffffffffffffffffffffffffffff021916908373ffffffffffffffffffffffffffffffffffffffff16021790555050565b3373ffffffffffffffffffffffffffffffffffffffff16600f600084815260200190815260200160002060010160009054906101000a900473ffffffffffffffffffffffffffffffffffffffff1673ffffffffffffffffffffffffffffffffffffffff1614806111e757503373ffffffffffffffffffffffffffffffffffffffff166111cf83836129cc565b73ffffffffffffffffffffffffffffffffffffffff16145b8061123f57503373ffffffffffffffffffffffffffffffffffffffff16601260009054906101000a900473ffffffffffffffffffffffffffffffffffffffff1673ffffffffffffffffffffffffffffffffffffffff16145b61127e576040517f08c379a000000000000000000000000000000000000000000000000000000000815260040161127590614def565b60405180910390fd5b6000600f6000848152602001908152602001600020600301805480602002602001604051908101604052809291908181526020016000905b828210156113da57838290600052602060002090600302016040518060600160405290816000820180546112e990614a41565b80601f016020809104026020016040519081016040528092919081815260200182805461131590614a41565b80156113625780601f1061133757610100808354040283529160200191611362565b820191906000526020600020905b81548152906001019060200180831161134557829003601f168201915b505050505081526020016001820160009054906101000a900473ffffffffffffffffffffffffffffffffffffffff1673ffffffffffffffffffffffffffffffffffffffff1673ffffffffffffffffffffffffffffffffffffffff168152602001600282015481525050815260200190600101906112b6565b5050505090506000815190506001810361141a57600c600f600086815260200190815260200160002060030190805461141492919061314e565b5061157b565b600c600d90805461142c92919061314e565b5060005b81811015611552578383828151811061144c5761144b614869565b5b6020026020010151604001511461154757600d600f6000878152602001908152602001600020600301828154811061148757611486614869565b5b90600052602060002090600302019080600181540180825580915050600190039060005260206000209060030201600090919091909150600082018160000190816114d29190614e25565b506001820160009054906101000a900473ffffffffffffffffffffffffffffffffffffffff168160010160006101000a81548173ffffffffffffffffffffffffffffffffffffffff021916908373ffffffffffffffffffffffffffffffffffffffff1602179055506002820154816002015550505b806001019050611430565b50600d600f600086815260200190815260200160002060030190805461157992919061314e565b505b50505050565b8351855114158061159457508251855114155b806115a157508051855114155b156115d8576040517f263eee8d00000000000000000000000000000000000000000000000000000000815260040160405180910390fd5b60005b855181101561166c576116598682815181106115fa576115f9614869565b5b602002602001015186838151811061161557611614614869565b5b60200260200101518684815181106116305761162f614869565b5b60200260200101518686868151811061164c5761164b614869565b5b6020026020010151610f2e565b808061166490614a72565b9150506115db565b505050505050565b60606000806000600e8054905090506000600e8054806020026020016040519081016040528092919081815260200182805480156116d157602002820191906000526020600020905b8154815260200190600101908083116116bd575b505050505090508167ffffffffffffffff8111156116f2576116f1613678565b5b60405190808252806020026020018201604052801561172b57816020015b61171861322c565b8152602001906001900390816117105790505b50945060005b82811015611a6b57600f60008383815181106117505761174f614869565b5b602002602001015181526020019081526020016000206040518060a001604052908160008201805461178190614a41565b80601f01602080910402602001604051908101604052809291908181526020018280546117ad90614a41565b80156117fa5780601f106117cf576101008083540402835291602001916117fa565b820191906000526020600020905b8154815290600101906020018083116117dd57829003601f168201915b505050505081526020016001820160009054906101000a900473ffffffffffffffffffffffffffffffffffffffff1673ffffffffffffffffffffffffffffffffffffffff1673ffffffffffffffffffffffffffffffffffffffff168152602001600282018054806020026020016040519081016040528092919081815260200182805480156118de57602002820191906000526020600020905b8160009054906101000a900473ffffffffffffffffffffffffffffffffffffffff1673ffffffffffffffffffffffffffffffffffffffff1681526020019060010190808311611894575b5050505050815260200160038201805480602002602001604051908101604052809291908181526020016000905b82821015611a30578382906000526020600020906003020160405180606001604052908160008201805461193f90614a41565b80601f016020809104026020016040519081016040528092919081815260200182805461196b90614a41565b80156119b85780601f1061198d576101008083540402835291602001916119b8565b820191906000526020600020905b81548152906001019060200180831161199b57829003601f168201915b505050505081526020016001820160009054906101000a900473ffffffffffffffffffffffffffffffffffffffff1673ffffffffffffffffffffffffffffffffffffffff1673ffffffffffffffffffffffffffffffffffffffff1681526020016002820154815250508152602001906001019061190c565b505050508152602001600482015481525050868281518110611a5557611a54614869565b5b6020026020010181905250806001019050611731565b50846010546011549450945094505050909192565b600e8181548110611a9057600080fd5b906000526020600020016000915090505481565b818160066000019182611ab8929190614f18565b5033600660010160006101000a81548173ffffffffffffffffffffffffffffffffffffffff021916908373ffffffffffffffffffffffffffffffffffffffff160217905550600b6006600201908054611b12929190613271565b50601060008154611b2290614a72565b9190508190556006600401819055506006600f6000601054815260200190815260200160002060008201816000019081611b5c9190614e25565b506001820160009054906101000a900473ffffffffffffffffffffffffffffffffffffffff168160010160006101000a81548173ffffffffffffffffffffffffffffffffffffffff021916908373ffffffffffffffffffffffffffffffffffffffff1602179055506002820181600201908054611bda9291906132c3565b506003820181600301908054611bf1929190613315565b5060048201548160040155905050600e6010549080600181540180825580915050600190039060005260206000200160009091909190915055611c4833601054600160405180602001604052806000815250612aa8565b5050565b60008273ffffffffffffffffffffffffffffffffffffffff168273ffffffffffffffffffffffffffffffffffffffff1603611cc857600460008373ffffffffffffffffffffffffffffffffffffffff1673ffffffffffffffffffffffffffffffffffffffff168152602001908152602001600020549050611d48565b600560008373ffffffffffffffffffffffffffffffffffffffff1673ffffffffffffffffffffffffffffffffffffffff16815260200190815260200160002060008473ffffffffffffffffffffffffffffffffffffffff1673ffffffffffffffffffffffffffffffffffffffff1681526020019081526020016000205490505b92915050565b6000600f6000838152602001908152602001600020600201805480602002602001604051908101604052809291908181526020018280548015611de657602002820191906000526020600020905b8160009054906101000a900473ffffffffffffffffffffffffffffffffffffffff1673ffffffffffffffffffffffffffffffffffffffff1681526020019060010190808311611d9c575b5050505050905060008151905060008060005b83811015611e9d573373ffffffffffffffffffffffffffffffffffffffff16600f60008881526020019081526020016000206002018281548110611e4057611e3f614869565b5b9060005260206000200160009054906101000a900473ffffffffffffffffffffffffffffffffffffffff1673ffffffffffffffffffffffffffffffffffffffff1603611e925760019250809150611e9d565b806001019050611df9565b5081611f1f57600f6000868152602001908152602001600020600201339080600181540180825580915050600190039060005260206000200160009091909190916101000a81548173ffffffffffffffffffffffffffffffffffffffff021916908373ffffffffffffffffffffffffffffffffffffffff160217905550612040565b60008190505b600184611f3291906148c7565b811015611fb85784600182611f4791906148fb565b81518110611f5857611f57614869565b5b6020026020010151858281518110611f7357611f72614869565b5b602002602001019073ffffffffffffffffffffffffffffffffffffffff16908173ffffffffffffffffffffffffffffffffffffffff1681525050806001019050611f25565b5083600f60008781526020019081526020016000206002019080519060200190611fe39291906133f3565b50600f600086815260200190815260200160002060020180548061200a57612009614951565b5b6001900381819060005260206000200160006101000a81549073ffffffffffffffffffffffffffffffffffffffff021916905590555b5050505050565b61204f612361565b600073ffffffffffffffffffffffffffffffffffffffff168173ffffffffffffffffffffffffffffffffffffffff16036120be576040517f08c379a00000000000000000000000000000000000000000000000000000000081526004016120b59061505a565b60405180910390fd5b6120c7816121af565b50565b3373ffffffffffffffffffffffffffffffffffffffff16600f600085815260200190815260200160002060010160009054906101000a900473ffffffffffffffffffffffffffffffffffffffff1673ffffffffffffffffffffffffffffffffffffffff161461216e576040517f08c379a0000000000000000000000000000000000000000000000000000000008152600401612165906150c6565b60405180910390fd5b8181600f60008681526020019081526020016000206000019182612193929190614f18565b50505050565b6121ac6121a46124ab565b8260006124b3565b50565b6121b761107c565b73ffffffffffffffffffffffffffffffffffffffff168173ffffffffffffffffffffffffffffffffffffffff16146122ab5760008060009054906101000a900473ffffffffffffffffffffffffffffffffffffffff169050816000806101000a81548173ffffffffffffffffffffffffffffffffffffffff021916908373ffffffffffffffffffffffffffffffffffffffff1602179055508173ffffffffffffffffffffffffffffffffffffffff168173ffffffffffffffffffffffffffffffffffffffff167f8be0079c531659141344cd1fd0a4f28419497f9722a3daafe3b4186f6b6457e060405160405180910390a3505b50565b806001600084815260200190815260200160002090816122ce9190615141565b50817fcdf4e344c0d23d4cdd0474039d176c55b19d531070dbe17856bfb993a5b5720b60405160405180910390a25050565b600063714df77c60e01b7bffffffffffffffffffffffffffffffffffffffffffffffffffffffff1916827bffffffffffffffffffffffffffffffffffffffffffffffffffffffff1916148061235a575061235982612c12565b5b9050919050565b3373ffffffffffffffffffffffffffffffffffffffff1661238061107c565b73ffffffffffffffffffffffffffffffffffffffff16146123d6576040517f08c379a00000000000000000000000000000000000000000000000000000000081526004016123cd9061525f565b60405180910390fd5b565b7fdeba1e292f8ba88238e10ab3c7f88bd4be4fac56cad5194b6ecceaf653468af160001b8203612434576040517f85c169bd00000000000000000000000000000000000000000000000000000000815260040160405180910390fd5b7f2f0a68ab07768e01943a599e73362a0e17a63a72e94dd2e384d2c1d4db93275660001b8203612490576040517f76755b3800000000000000000000000000000000000000000000000000000000815260040160405180910390fd5b61249a82826122ae565b5050565b6000600182019050919050565b600033905090565b600073ffffffffffffffffffffffffffffffffffffffff168273ffffffffffffffffffffffffffffffffffffffff1603612519576040517f6355e76600000000000000000000000000000000000000000000000000000000815260040160405180910390fd5b8273ffffffffffffffffffffffffffffffffffffffff168273ffffffffffffffffffffffffffffffffffffffff1603156126925780600560008573ffffffffffffffffffffffffffffffffffffffff1673ffffffffffffffffffffffffffffffffffffffff16815260200190815260200160002060008473ffffffffffffffffffffffffffffffffffffffff1673ffffffffffffffffffffffffffffffffffffffff168152602001908152602001600020819055506000811461263657808373ffffffffffffffffffffffffffffffffffffffff168373ffffffffffffffffffffffffffffffffffffffff167fd66aff874162a96578e919097b6f6d153dfd89a5cec41bb331fdb0c4aec16e2c60405160405180910390a4612691565b8273ffffffffffffffffffffffffffffffffffffffff168273ffffffffffffffffffffffffffffffffffffffff167f50546e66e5f44d728365dc3908c63bc5cfeeab470722c1677e3073a6ac294aa160405160405180910390a35b5b505050565b60606001600083815260200190815260200160002080546126b790614a41565b80601f01602080910402602001604051908101604052809291908181526020018280546126e390614a41565b80156127305780601f1061270557610100808354040283529160200191612730565b820191906000526020600020905b81548152906001019060200180831161271357829003601f168201915b50505050509050919050565b600073ffffffffffffffffffffffffffffffffffffffff168573ffffffffffffffffffffffffffffffffffffffff1614806127a35750600073ffffffffffffffffffffffffffffffffffffffff168473ffffffffffffffffffffffffffffffffffffffff16145b156127da576040517fd2d5ec3000000000000000000000000000000000000000000000000000000000815260040160405180910390fd5b6000600460008773ffffffffffffffffffffffffffffffffffffffff1673ffffffffffffffffffffffffffffffffffffffff16815260200190815260200160002054905080841115612867578086856040517f08d4794900000000000000000000000000000000000000000000000000000000815260040161285e9392919061527f565b60405180910390fd5b60006128716124ab565b905061287e878787612c7c565b84600460008973ffffffffffffffffffffffffffffffffffffffff1673ffffffffffffffffffffffffffffffffffffffff16815260200190815260200160002060008282546128cd91906148c7565b9250508190555084600460008873ffffffffffffffffffffffffffffffffffffffff1673ffffffffffffffffffffffffffffffffffffffff168152602001908152602001600020600082825461292391906148fb565b925050819055508573ffffffffffffffffffffffffffffffffffffffff168773ffffffffffffffffffffffffffffffffffffffff168273ffffffffffffffffffffffffffffffffffffffff167f3997e418d2cef0b3b0e907b1e39605c3f7d32dbd061e82ea5b4a770d46a160a68888886040516129a2939291906152b6565b60405180910390a46129b687878786612d1d565b6129c38787878787612e0c565b50505050505050565b600080600090505b600f600085815260200190815260200160002060030180549050811015612aa15782600f60008681526020019081526020016000206003018281548110612a1e57612a1d614869565b5b90600052602060002090600302016002015403612a9657600f60008581526020019081526020016000206003018181548110612a5d57612a5c614869565b5b906000526020600020906003020160010160009054906101000a900473ffffffffffffffffffffffffffffffffffffffff169150612aa1565b8060010190506129d4565b5092915050565b600073ffffffffffffffffffffffffffffffffffffffff168473ffffffffffffffffffffffffffffffffffffffff1603612b0e576040517fd2d5ec3000000000000000000000000000000000000000000000000000000000815260040160405180910390fd5b6000612b186124ab565b9050612b2660008686612c7c565b83600460008773ffffffffffffffffffffffffffffffffffffffff1673ffffffffffffffffffffffffffffffffffffffff1681526020019081526020016000206000828254612b7591906148fb565b925050819055508473ffffffffffffffffffffffffffffffffffffffff16600073ffffffffffffffffffffffffffffffffffffffff168273ffffffffffffffffffffffffffffffffffffffff167f3997e418d2cef0b3b0e907b1e39605c3f7d32dbd061e82ea5b4a770d46a160a6878787604051612bf5939291906152b6565b60405180910390a4612c0b600086868686612e0c565b5050505050565b60007f01ffc9a7000000000000000000000000000000000000000000000000000000007bffffffffffffffffffffffffffffffffffffffffffffffffffffffff1916827bffffffffffffffffffffffffffffffffffffffffffffffffffffffff1916149050919050565b600073ffffffffffffffffffffffffffffffffffffffff168373ffffffffffffffffffffffffffffffffffffffff1603612cca578060036000828254612cc291906148fb565b925050819055505b600073ffffffffffffffffffffffffffffffffffffffff168273ffffffffffffffffffffffffffffffffffffffff1603612d18578060036000828254612d1091906148c7565b925050819055505b505050565b612d2e84636bb56a1460e01b612f9f565b15612e0657600084848484604051602001612d4c9493929190615399565b60405160208183030381529060405290508473ffffffffffffffffffffffffffffffffffffffff16636bb56a147f40b8bec57d7b5ff0dbd9e9acd0a47dfeb0101e1a203766f5ccab00445fbf39e960001b836040518363ffffffff1660e01b8152600401612dbb9291906153f2565b6000604051808303816000875af1158015612dda573d6000803e3d6000fd5b505050506040513d6000823e3d601f19601f82011682018060405250810190612e039190615492565b50505b50505050565b612e1d84636bb56a1460e01b612f9f565b15612ef957600085858584604051602001612e3b9493929190615399565b60405160208183030381529060405290508473ffffffffffffffffffffffffffffffffffffffff16636bb56a147fdbe2c314e1aee2970c72666f2ebe8933a8575263ea71e5ff6a9178e95d47a26f60001b836040518363ffffffff1660e01b8152600401612eaa9291906153f2565b6000604051808303816000875af1158015612ec9573d6000803e3d6000fd5b505050506040513d6000823e3d601f19601f82011682018060405250810190612ef29190615492565b5050612f98565b81612f975760008473ffffffffffffffffffffffffffffffffffffffff163b14612f5a57836040517fa608fbb6000000000000000000000000000000000000000000000000000000008152600401612f51919061422b565b60405180910390fd5b836040517f26c247f4000000000000000000000000000000000000000000000000000000008152600401612f8e919061422b565b60405180910390fd5b5b5050505050565b6000806301ffc9a760e01b83604051602401612fbb91906154ea565b604051602081830303815290604052907bffffffffffffffffffffffffffffffffffffffffffffffffffffffff19166020820180517bffffffffffffffffffffffffffffffffffffffffffffffffffffffff838183161783525050505090506000808573ffffffffffffffffffffffffffffffffffffffff16617530846040516130459190615505565b6000604051808303818686fa925050503d8060008114613081576040519150601f19603f3d011682016040523d82523d6000602084013e613086565b606091505b50915091506020815110156130a157600093505050506130c4565b8180156130be5750808060200190518101906130bd9190615531565b5b93505050505b92915050565b828054828255906000526020600020908101928215613106579160200282015b828111156131055782518255916020019190600101906130ea565b5b509050613113919061347d565b5090565b604051806060016040528060608152602001600073ffffffffffffffffffffffffffffffffffffffff168152602001600081525090565b82805482825590600052602060002090600302810192821561321b5760005260206000209160030282015b8281111561321a578282600082018160000190816131979190614e25565b506001820160009054906101000a900473ffffffffffffffffffffffffffffffffffffffff168160010160006101000a81548173ffffffffffffffffffffffffffffffffffffffff021916908373ffffffffffffffffffffffffffffffffffffffff16021790555060028201548160020155505091600301919060030190613179565b5b509050613228919061349a565b5090565b6040518060a0016040528060608152602001600073ffffffffffffffffffffffffffffffffffffffff1681526020016060815260200160608152602001600081525090565b8280548282559060005260206000209081019282156132b25760005260206000209182015b828111156132b1578254825591600101919060010190613296565b5b5090506132bf919061347d565b5090565b8280548282559060005260206000209081019282156133045760005260206000209182015b828111156133035782548255916001019190600101906132e8565b5b509050613311919061347d565b5090565b8280548282559060005260206000209060030281019282156133e25760005260206000209160030282015b828111156133e15782826000820181600001908161335e9190614e25565b506001820160009054906101000a900473ffffffffffffffffffffffffffffffffffffffff168160010160006101000a81548173ffffffffffffffffffffffffffffffffffffffff021916908373ffffffffffffffffffffffffffffffffffffffff16021790555060028201548160020155505091600301919060030190613340565b5b5090506133ef919061349a565b5090565b82805482825590600052602060002090810192821561346c579160200282015b8281111561346b5782518260006101000a81548173ffffffffffffffffffffffffffffffffffffffff021916908373ffffffffffffffffffffffffffffffffffffffff16021790555091602001919060010190613413565b5b509050613479919061347d565b5090565b5b8082111561349657600081600090555060010161347e565b5090565b5b808211156134ec57600080820160006134b491906134f0565b6001820160006101000a81549073ffffffffffffffffffffffffffffffffffffffff021916905560028201600090555060030161349b565b5090565b5080546134fc90614a41565b6000825580601f1061350e575061352d565b601f01602090049060005260206000209081019061352c919061347d565b5b50565b6000604051905090565b600080fd5b600080fd5b60007fffffffff0000000000000000000000000000000000000000000000000000000082169050919050565b61357981613544565b811461358457600080fd5b50565b60008135905061359681613570565b92915050565b6000602082840312156135b2576135b161353a565b5b60006135c084828501613587565b91505092915050565b60008115159050919050565b6135de816135c9565b82525050565b60006020820190506135f960008301846135d5565b92915050565b6000819050919050565b613612816135ff565b811461361d57600080fd5b50565b60008135905061362f81613609565b92915050565b60006020828403121561364b5761364a61353a565b5b600061365984828501613620565b91505092915050565b600080fd5b6000601f19601f8301169050919050565b7f4e487b7100000000000000000000000000000000000000000000000000000000600052604160045260246000fd5b6136b082613667565b810181811067ffffffffffffffff821117156136cf576136ce613678565b5b80604052505050565b60006136e2613530565b90506136ee82826136a7565b919050565b600067ffffffffffffffff82111561370e5761370d613678565b5b602082029050602081019050919050565b600080fd5b6000819050919050565b61373781613724565b811461374257600080fd5b50565b6000813590506137548161372e565b92915050565b600061376d613768846136f3565b6136d8565b905080838252602082019050602084028301858111156137905761378f61371f565b5b835b818110156137b957806137a58882613745565b845260208401935050602081019050613792565b5050509392505050565b600082601f8301126137d8576137d7613662565b5b81356137e884826020860161375a565b91505092915050565b600067ffffffffffffffff82111561380c5761380b613678565b5b602082029050602081019050919050565b600080fd5b600067ffffffffffffffff82111561383d5761383c613678565b5b61384682613667565b9050602081019050919050565b82818337600083830152505050565b600061387561387084613822565b6136d8565b9050828152602081018484840111156138915761389061381d565b5b61389c848285613853565b509392505050565b600082601f8301126138b9576138b8613662565b5b81356138c9848260208601613862565b91505092915050565b60006138e56138e0846137f1565b6136d8565b905080838252602082019050602084028301858111156139085761390761371f565b5b835b8181101561394f57803567ffffffffffffffff81111561392d5761392c613662565b5b80860161393a89826138a4565b8552602085019450505060208101905061390a565b5050509392505050565b600082601f83011261396e5761396d613662565b5b813561397e8482602086016138d2565b91505092915050565b6000806040838503121561399e5761399d61353a565b5b600083013567ffffffffffffffff8111156139bc576139bb61353f565b5b6139c8858286016137c3565b925050602083013567ffffffffffffffff8111156139e9576139e861353f565b5b6139f585828601613959565b9150509250929050565b600081519050919050565b600082825260208201905092915050565b60005b83811015613a39578082015181840152602081019050613a1e565b83811115613a48576000848401525b50505050565b6000613a59826139ff565b613a638185613a0a565b9350613a73818560208601613a1b565b613a7c81613667565b840191505092915050565b600073ffffffffffffffffffffffffffffffffffffffff82169050919050565b6000613ab282613a87565b9050919050565b613ac281613aa7565b82525050565b613ad1816135ff565b82525050565b60006060820190508181036000830152613af18186613a4e565b9050613b006020830185613ab9565b613b0d6040830184613ac8565b949350505050565b6000602082019050613b2a6000830184613ac8565b92915050565b600081519050919050565b600082825260208201905092915050565b6000819050602082019050919050565b600082825260208201905092915050565b6000613b78826139ff565b613b828185613b5c565b9350613b92818560208601613a1b565b613b9b81613667565b840191505092915050565b613baf81613aa7565b82525050565b613bbe816135ff565b82525050565b60006060830160008301518482036000860152613be18282613b6d565b9150506020830151613bf66020860182613ba6565b506040830151613c096040860182613bb5565b508091505092915050565b6000613c208383613bc4565b905092915050565b6000602082019050919050565b6000613c4082613b30565b613c4a8185613b3b565b935083602082028501613c5c85613b4c565b8060005b85811015613c985784840389528151613c798582613c14565b9450613c8483613c28565b925060208a01995050600181019050613c60565b50829750879550505050505092915050565b60006020820190508181036000830152613cc48184613c35565b905092915050565b600080fd5b60008083601f840112613ce757613ce6613662565b5b8235905067ffffffffffffffff811115613d0457613d03613ccc565b5b602083019150836001820283011115613d2057613d1f61371f565b5b9250929050565b600080600060408486031215613d4057613d3f61353a565b5b6000613d4e86828701613620565b935050602084013567ffffffffffffffff811115613d6f57613d6e61353f565b5b613d7b86828701613cd1565b92509250509250925092565b613d9081613aa7565b8114613d9b57600080fd5b50565b600081359050613dad81613d87565b92915050565b60008060408385031215613dca57613dc961353a565b5b6000613dd885828601613d9e565b9250506020613de985828601613620565b9150509250929050565b600060208284031215613e0957613e0861353a565b5b600082013567ffffffffffffffff811115613e2757613e2661353f565b5b613e33848285016137c3565b91505092915050565b600081519050919050565b600082825260208201905092915050565b6000819050602082019050919050565b600081519050919050565b600082825260208201905092915050565b6000613e8f82613e68565b613e998185613e73565b9350613ea9818560208601613a1b565b613eb281613667565b840191505092915050565b6000613ec98383613e84565b905092915050565b6000602082019050919050565b6000613ee982613e3c565b613ef38185613e47565b935083602082028501613f0585613e58565b8060005b85811015613f415784840389528151613f228582613ebd565b9450613f2d83613ed1565b925060208a01995050600181019050613f09565b50829750879550505050505092915050565b60006020820190508181036000830152613f6d8184613ede565b905092915050565b600081519050919050565b600082825260208201905092915050565b6000819050602082019050919050565b6000613fad8383613ba6565b60208301905092915050565b6000602082019050919050565b6000613fd182613f75565b613fdb8185613f80565b9350613fe683613f91565b8060005b83811015614017578151613ffe8882613fa1565b975061400983613fb9565b925050600181019050613fea565b5085935050505092915050565b6000602082019050818103600083015261403e8184613fc6565b905092915050565b60006020828403121561405c5761405b61353a565b5b600061406a84828501613745565b91505092915050565b600082825260208201905092915050565b600061408f82613e68565b6140998185614073565b93506140a9818560208601613a1b565b6140b281613667565b840191505092915050565b600060208201905081810360008301526140d78184614084565b905092915050565b6000602082840312156140f5576140f461353a565b5b600061410384828501613d9e565b91505092915050565b614115816135c9565b811461412057600080fd5b50565b6000813590506141328161410c565b92915050565b600080600080600060a086880312156141545761415361353a565b5b600061416288828901613d9e565b955050602061417388828901613d9e565b945050604061418488828901613620565b935050606061419588828901614123565b925050608086013567ffffffffffffffff8111156141b6576141b561353f565b5b6141c2888289016138a4565b9150509295509295909350565b600080604083850312156141e6576141e561353a565b5b60006141f485828601613745565b925050602083013567ffffffffffffffff8111156142155761421461353f565b5b614221858286016138a4565b9150509250929050565b60006020820190506142406000830184613ab9565b92915050565b6000806040838503121561425d5761425c61353a565b5b600061426b85828601613620565b925050602061427c85828601613620565b9150509250929050565b600067ffffffffffffffff8211156142a1576142a0613678565b5b602082029050602081019050919050565b60006142c56142c084614286565b6136d8565b905080838252602082019050602084028301858111156142e8576142e761371f565b5b835b8181101561431157806142fd8882613d9e565b8452602084019350506020810190506142ea565b5050509392505050565b600082601f8301126143305761432f613662565b5b81356143408482602086016142b2565b91505092915050565b600067ffffffffffffffff82111561436457614363613678565b5b602082029050602081019050919050565b600061438861438384614349565b6136d8565b905080838252602082019050602084028301858111156143ab576143aa61371f565b5b835b818110156143d457806143c08882613620565b8452602084019350506020810190506143ad565b5050509392505050565b600082601f8301126143f3576143f2613662565b5b8135614403848260208601614375565b91505092915050565b600080600080600060a086880312156144285761442761353a565b5b600086013567ffffffffffffffff8111156144465761444561353f565b5b6144528882890161431b565b955050602086013567ffffffffffffffff8111156144735761447261353f565b5b61447f8882890161431b565b945050604086013567ffffffffffffffff8111156144a05761449f61353f565b5b6144ac888289016143de565b93505060606144bd88828901614123565b925050608086013567ffffffffffffffff8111156144de576144dd61353f565b5b6144ea88828901613959565b9150509295509295909350565b600081519050919050565b600082825260208201905092915050565b6000819050602082019050919050565b600082825260208201905092915050565b600061453f82613f75565b6145498185614523565b935061455483613f91565b8060005b8381101561458557815161456c8882613fa1565b975061457783613fb9565b925050600181019050614558565b5085935050505092915050565b600082825260208201905092915050565b60006145ae82613b30565b6145b88185614592565b9350836020820285016145ca85613b4c565b8060005b8581101561460657848403895281516145e78582613c14565b94506145f283613c28565b925060208a019950506001810190506145ce565b50829750879550505050505092915050565b600060a08301600083015184820360008601526146358282613b6d565b915050602083015161464a6020860182613ba6565b50604083015184820360408601526146628282614534565b9150506060830151848203606086015261467c82826145a3565b91505060808301516146916080860182613bb5565b508091505092915050565b60006146a88383614618565b905092915050565b6000602082019050919050565b60006146c8826144f7565b6146d28185614502565b9350836020820285016146e485614513565b8060005b858110156147205784840389528151614701858261469c565b945061470c836146b0565b925060208a019950506001810190506146e8565b50829750879550505050505092915050565b6000606082019050818103600083015261474c81866146bd565b905061475b6020830185613ac8565b6147686040830184613ac8565b949350505050565b600080602083850312156147875761478661353a565b5b600083013567ffffffffffffffff8111156147a5576147a461353f565b5b6147b185828601613cd1565b92509250509250929050565b600080604083850312156147d4576147d361353a565b5b60006147e285828601613d9e565b92505060206147f385828601613d9e565b9150509250929050565b7f617574686f72206f722061646d696e2063616e2064656c65746520706f737400600082015250565b6000614833601f83613a0a565b915061483e826147fd565b602082019050919050565b6000602082019050818103600083015261486281614826565b9050919050565b7f4e487b7100000000000000000000000000000000000000000000000000000000600052603260045260246000fd5b7f4e487b7100000000000000000000000000000000000000000000000000000000600052601160045260246000fd5b60006148d2826135ff565b91506148dd836135ff565b9250828210156148f0576148ef614898565b5b828203905092915050565b6000614906826135ff565b9150614911836135ff565b9250827fffffffffffffffffffffffffffffffffffffffffffffffffffffffffffffffff0382111561494657614945614898565b5b828201905092915050565b7f4e487b7100000000000000000000000000000000000000000000000000000000600052603160045260246000fd5b7f4b657973206c656e677468206e6f7420657175616c20746f2076616c7565732060008201527f6c656e6774680000000000000000000000000000000000000000000000000000602082015250565b60006149dc602683613a0a565b91506149e782614980565b604082019050919050565b60006020820190508181036000830152614a0b816149cf565b9050919050565b7f4e487b7100000000000000000000000000000000000000000000000000000000600052602260045260246000fd5b60006002820490506001821680614a5957607f821691505b602082108103614a6c57614a6b614a12565b5b50919050565b6000614a7d826135ff565b91507fffffffffffffffffffffffffffffffffffffffffffffffffffffffffffffffff8203614aaf57614aae614898565b5b600182019050919050565b60008190508160005260206000209050919050565b60006020601f8301049050919050565b600082821b905092915050565b600060088302614b1c7fffffffffffffffffffffffffffffffffffffffffffffffffffffffffffffffff82614adf565b614b268683614adf565b95508019841693508086168417925050509392505050565b6000819050919050565b6000614b63614b5e614b59846135ff565b614b3e565b6135ff565b9050919050565b6000819050919050565b614b7d83614b48565b614b91614b8982614b6a565b848454614aec565b825550505050565b600090565b614ba6614b99565b614bb1818484614b74565b505050565b5b81811015614bd557614bca600082614b9e565b600181019050614bb7565b5050565b601f821115614c1a57614beb81614aba565b614bf484614acf565b81016020851015614c03578190505b614c17614c0f85614acf565b830182614bb6565b50505b505050565b600082821c905092915050565b6000614c3d60001984600802614c1f565b1980831691505092915050565b6000614c568383614c2c565b9150826002028217905092915050565b614c6f826139ff565b67ffffffffffffffff811115614c8857614c87613678565b5b614c928254614a41565b614c9d828285614bd9565b600060209050601f831160018114614cd05760008415614cbe578287015190505b614cc88582614c4a565b865550614d30565b601f198416614cde86614aba565b60005b82811015614d0657848901518255600182019150602085019450602081019050614ce1565b86831015614d235784890151614d1f601f891682614c2c565b8355505b6001600288020188555050505b505050505050565b6000608082019050614d4d6000830187613ab9565b614d5a6020830186613ac8565b614d676040830185613ab9565b614d746060830184613ac8565b95945050505050565b7f4f6e6c7920706f737420617574686f72206f7220636f6d6d656e746f7220636160008201527f6e2072656d6f766520636f6d6d656e7400000000000000000000000000000000602082015250565b6000614dd9603083613a0a565b9150614de482614d7d565b604082019050919050565b60006020820190508181036000830152614e0881614dcc565b9050919050565b600081549050614e1e81614a41565b9050919050565b818103614e33575050614f0b565b614e3c82614e0f565b67ffffffffffffffff811115614e5557614e54613678565b5b614e5f8254614a41565b614e6a828285614bd9565b6000601f831160018114614e995760008415614e87578287015490505b614e918582614c4a565b865550614f04565b601f198416614ea787614aba565b9650614eb286614aba565b60005b82811015614eda57848901548255600182019150600185019450602081019050614eb5565b86831015614ef75784890154614ef3601f891682614c2c565b8355505b6001600288020188555050505b5050505050505b565b600082905092915050565b614f228383614f0d565b67ffffffffffffffff811115614f3b57614f3a613678565b5b614f458254614a41565b614f50828285614bd9565b6000601f831160018114614f7f5760008415614f6d578287013590505b614f778582614c4a565b865550614fdf565b601f198416614f8d86614aba565b60005b82811015614fb557848901358255600182019150602085019450602081019050614f90565b86831015614fd25784890135614fce601f891682614c2c565b8355505b6001600288020188555050505b50505050505050565b7f4f776e61626c653a206e6577206f776e657220697320746865207a65726f206160008201527f6464726573730000000000000000000000000000000000000000000000000000602082015250565b6000615044602683613a0a565b915061504f82614fe8565b604082019050919050565b6000602082019050818103600083015261507381615037565b9050919050565b7f4f6e6c7920617574686f722063616e206564697420706f737400000000000000600082015250565b60006150b0601983613a0a565b91506150bb8261507a565b602082019050919050565b600060208201905081810360008301526150df816150a3565b9050919050565b60008190508160005260206000209050919050565b601f82111561513c5761510d816150e6565b61511684614acf565b81016020851015615125578190505b61513961513185614acf565b830182614bb6565b50505b505050565b61514a82613e68565b67ffffffffffffffff81111561516357615162613678565b5b61516d8254614a41565b6151788282856150fb565b600060209050601f8311600181146151ab5760008415615199578287015190505b6151a38582614c4a565b86555061520b565b601f1984166151b9866150e6565b60005b828110156151e1578489015182556001820191506020850194506020810190506151bc565b868310156151fe57848901516151fa601f891682614c2c565b8355505b6001600288020188555050505b505050505050565b7f4f776e61626c653a2063616c6c6572206973206e6f7420746865206f776e6572600082015250565b6000615249602083613a0a565b915061525482615213565b602082019050919050565b600060208201905081810360008301526152788161523c565b9050919050565b60006060820190506152946000830186613ac8565b6152a16020830185613ab9565b6152ae6040830184613ac8565b949350505050565b60006060820190506152cb6000830186613ac8565b6152d860208301856135d5565b81810360408301526152ea8184614084565b9050949350505050565b60008160601b9050919050565b600061530c826152f4565b9050919050565b600061531e82615301565b9050919050565b61533661533182613aa7565b615313565b82525050565b6000819050919050565b615357615352826135ff565b61533c565b82525050565b600081905092915050565b600061537382613e68565b61537d818561535d565b935061538d818560208601613a1b565b80840191505092915050565b60006153a58287615325565b6014820191506153b58286615325565b6014820191506153c58285615346565b6020820191506153d58284615368565b915081905095945050505050565b6153ec81613724565b82525050565b600060408201905061540760008301856153e3565b81810360208301526154198184614084565b90509392505050565b600061543561543084613822565b6136d8565b9050828152602081018484840111156154515761545061381d565b5b61545c848285613a1b565b509392505050565b600082601f83011261547957615478613662565b5b8151615489848260208601615422565b91505092915050565b6000602082840312156154a8576154a761353a565b5b600082015167ffffffffffffffff8111156154c6576154c561353f565b5b6154d284828501615464565b91505092915050565b6154e481613544565b82525050565b60006020820190506154ff60008301846154db565b92915050565b60006155118284615368565b915081905092915050565b60008151905061552b8161410c565b92915050565b6000602082840312156155475761554661353a565b5b60006155558482850161551c565b9150509291505056fea2646970667358221220f00ca1299abb689ecf388e3487bd297291b520dbe53efadb4efcb9d71c0b8b5c64736f6c634300080f0033",
  "linkReferences": {},
  "deployedLinkReferences": {}
}